:020000040800F2
:10000000301F0020090100087D1E00087F1E000827
:10001000831E0008871E00088B1E000800000000D9
:10002000000000000000000000000000911E000819
:100030008F1E000800000000931E0008951E000897
:100040002301000823010008230100082301000800
:1000500023010008230100082301000823010008F0
:1000600023010008230100082301000823010008E0
:1000700023010008230100082301000823010008D0
:1000800023010008230100082301000823010008C0
:1000900023010008230100082301000823010008B0
:1000A00023010008230100082301000823010008A0
:1000B000971E0008230100083527000823010008C7
:1000C0002301000823010008230100082301000880
:1000D00023010008FF200008BB2200087F2400083D
:1000E0002301000823010008230100080B27000852
:1000F000E1260008DFF80CD003F016FB00480047AB
:10010000191A0008301F002006488047064800479B
:10011000FEE7FEE7FEE7FEE7FEE7FEE7FEE7FEE7B7
:10012000FEE7FEE72B1D0008F500000832490143F9
:10013000324A1160704770B5002100230F22C47845
:100140001CB32E4C246804F4E064C4F5E064C4F3EA
:100150000721C1F10404E3B20A4144789C40E1B2B2
:100160008478144021430C07210E254C05786155F5
:10017000047804F01F050124AC4005786D11AD0032
:1001800005F1E025C5F8004109E0047804F01F05F9
:100190000124AC401B4D0678761145F8264070BD11
:1001A000194A0A400243154B1B1F1A60704739B1A8
:1001B000124A121D12680243104B1B1D1A6006E002
:1001C0000E4A121D126882430C4B1B1D1A607047A9
:1001D000042808D14FF0E021096941F004014FF0F3
:1001E000E022116107E04FF0E021096921F00401EC
:1001F0004FF0E022116170470000FA050CED00E0BD
:1002000000E400E080E100E080FFFF1F10B504463D
:100210008548844208D10121084600F0BCFA00213B
:10022000012000F0B8FA52E08048844208D1012150
:10023000022000F0B0FA0021022000F0ACFA46E003
:100240007B48844208D10121042000F0A4FA002157
:10025000042000F0A0FA3AE07648844208D1012157
:10026000082000F098FA0021082000F094FA2EE00F
:100270007148844208D10121102000F08CFA00213D
:10028000102000F088FA22E06C48844208D1012155
:10029000402000F080FA0021402000F07CFA16E0B7
:1002A0006748844208D10121802000F074FA0021BF
:1002B000802000F070FA0AE06248844207D10121F0
:1002C000202000F068FA0021202000F064FA10BD20
:1002D000F0B50A4600210023002400BF3DE00125BF
:1002E00005FA01F3156805EA03049C4234D1056858
:1002F0004F000326BE40B543056015794E00B5405A
:100300000668354305601579012D02D01579022D57
:1003100016D185684F000326BE40B54385605579E8
:100320004E00B540866835438560858801268E403D
:10033000B5438580858896798E40B6B235438580F1
:10034000C5684F000326BE40B543C560D5794E0051
:10035000B540C6683543C560491C1029BFD3F0BD00
:100360004FF6FF7101600021017141718171C1710E
:10037000704708B54FF480320092009A0A43009209
:10038000009AC261C161009AC261C2690092C269E9
:10039000009208BD02460020138A0B400BB10120D9
:1003A00000E0002070470146088A7047024600209E
:1003B000938A0B400BB1012000E0002070470146FA
:1003C000888A704701837047418370470AB101836F
:1003D00000E04183704781827047828A4A4082826E
:1003E0007047F0B5002300244D07ED0E02FA05F327
:1003F000CE1000F1200555F826504E07F70E0F26B7
:10040000BE40B543CF1000F1200646F82750CE106D
:1004100000F1200555F8265045EA0304CE1000F1FE
:10042000200545F82640F0BD0000024000040240CF
:1004300000080240000C0240001002400018024078
:10044000001C024000140240F948006840F480702B
:10045000F7490860F64808300068F6490840F44952
:1004600008310860F2480068F3490840F049086024
:100470000846006820F480200860ED4808300068D5
:1004800020F47D00EA49083108600020091D086059
:1004900070470021E64A921C11701146087070479F
:1004A00010B501460022002300204A11012A02D182
:1004B000DF4C236802E0DE4C3434236801F01F0275
:1004C000012494401C400CB1012000E0002010BD2C
:1004D00038B5002000900024002500BF3120FFF730
:1004E000DFFF05460098401C00900098B0F5A06F13
:1004F00001D0002DF2D03120FFF7D2FF08B1012446
:1005000000E00024204638BDC949C91D0870704765
:1005100001460020C64A121D106820F460400843BE
:1005200010607047C5490862704701460020C04A04
:10053000121D106820F4F85040EA01201060704746
:10054000BE49086070470021B94A35321170114622
:1005500008707047BA490860704710B541EA020355
:100560000343B34C0A34237010BDB4490866704786
:10057000B24908677047B2492C310860704740EAB9
:100580000102AB4B0B331A70704701460020A84A9A
:100590000832106820F00300084310607047A44838
:1005A0000830006800F00C00704701460020A04AA7
:1005B0000832106820F0F0000843106070470146D0
:1005C00000209B4A0832106820F4E0600843106065
:1005D000704701460020964A0832106820F46050A7
:1005E00040EAC10010607047F0B5002100220023EE
:1005F0000026002400258E4F08373F6807F00C01C5
:1006000031B1042912D0082913D00C2937D113E0B5
:10061000874F3F1D3F68C7F342356F1C4FF0010CF9
:100620000CFA07FC4FEACC37076036E0854F0760CD
:1006300033E0854F076030E07D4F08373F6807F4AF
:1006400070127B4F08373F6807F440037F4F07EB7A
:1006500092473A78012707EB9353754F08373F6865
:1006600007F480362EB9774F5743B7FBF3F707608F
:1006700004E0754F5743B7FBF3F707600DE06C4F8D
:100680003F1D3F68C7F342356F1C4FF0010C0CFA59
:1006900007FC4FEACC37076000BF00BF644F083744
:1006A0003F6807F0F0010909694F7C5C0768E74083
:1006B00047605F4F08373F6807F4E061090A644FFD
:1006C0007C5C4768E7408760594F08373F6807F40C
:1006D0006051C90A5E4F7C5C4768E740C760F0BD67
:1006E000002100F44032B2F5403F08D1504A116871
:1006F00021F0C04100F0C04211434D4A11604C4A04
:100700003432126822F44032494B34331A601A46AC
:10071000126800F440331A43454B34331A60704773
:10072000474958310860704745495C310860704757
:1007300039B13F4A1C32126802433D4B1C331A60E8
:1007400006E03B4A1C3212688243394B1C331A6064
:10075000704739B1364A203212680243344B203395
:100760001A6006E0324A203212688243304B20334E
:100770001A60704739B12E4A2432126802432C4B5A
:1007800024331A6006E02A4A243212688243284B36
:1007900024331A60704739B1254A10321268024377
:1007A000234B10331A6006E0214A1032126882434C
:1007B0001F4B10331A60704739B11D4A143212684A
:1007C00002431B4B14331A6006E0194A14321268B4
:1007D0008243174B14331A60704739B1144A1832E8
:1007E00012680243124B18331A6006E0104A18329E
:1007F000126882430E4B18331A60704739B10C4AA5
:100800002832126802430A4B28331A6006E0084A6D
:10081000283212688243064B28331A607047C9B1E8
:10082000034A2C3212680243014B2C331A6016E043
:10083000003802400CC0FF88FEFFFEEE0000474279
:10084000800647420024F40000127A0000000020D5
:10085000090000201F4A126882431E4B1A6070472D
:1008600039B11C4A121D126802431A4B1B1D1A6033
:1008700006E0184A121D12688243164B1B1D1A60AF
:10088000704739B1134A1F3A12780243114B1F3B8C
:100890001A7006E00F4A1F3A127882430D4B1F3B35
:1008A0001A7070470B480830006840F080700949A2
:1008B00008310860704701460020064A203A126855
:1008C0000A400AB1012000E00020704701491E39AA
:1008D000087070472C38024010B50446B4F1804FC0
:1008E00008D101210846FFF778FF00210120FFF71A
:1008F00074FF5EE0FB48844208D101210220FFF72B
:100900006CFF00210220FFF768FF52E0F6488442A6
:1009100008D101210420FFF760FF00210420FFF728
:100920005CFF46E0F148844208D101210820FFF72E
:1009300054FF00210820FFF750FF3AE0EC488442C2
:1009400008D101211020FFF748FF00211020FFF7F8
:1009500044FF2EE0E748844208D101212020FFF720
:100960003CFF00212020FFF738FF22E0E2488442CC
:1009700008D101210420FFF71FFF00210420FFF709
:100980001BFF16E0DD48844208D101210820FFF753
:1009900013FF00210820FFF70FFF0AE0D848844228
:1009A00007D101211020FFF707FF00211020FFF7DA
:1009B00003FF10BD00220288B0F1804F08D0C94B60
:1009C000984205D0C84B984202D0C84B984204D1F7
:1009D0004FF68F731A404B881A43C54B984207D085
:1009E000C44B984204D04FF6FF431A400B891A4378
:1009F00002804B68C3620B880385012383827047A2
:100A00004FF0FF314160002101800181418070473A
:100A10000185828270470A46002101884FF68F7354
:100A2000194011430180704741627047C1627047AD
:100A30000146486A70470146088D704721B1028817
:100A400042F00202028004E002884FF6FD731A4071
:100A50000280704721B1028842F00402028004E063
:100A600002884FF6FB731A400280704721B102885A
:100A700042F08002028004E002884FF67F731A4041
:100A80000280704702884FF6F7731A40028002888E
:100A90000A430280704702884FF6FF431A400280E3
:100AA00002880A430280704721B1028842F00102A5
:100AB000028004E002884FF6FE731A4002807047FD
:100AC00030B500230022048C4FF6FE752C400484C0
:100AD000028C038B4FF68F742340AC1E23400C888E
:100AE00023436C1E22400C8922434C8822434C68CD
:100AF00044630383028430BD30B500230022048C9C
:100B00004FF6EF752C400484028C038B48F6FF747B
:100B100023400C884FF6FF7505EA042423434FF663
:100B2000DF7422400C8905EA041422434C8805EA4C
:100B3000041422434C6884630383028430BD30B5BF
:100B400000230022048C4FF6FF652C400484028CA5
:100B5000838B4FF68F7423400C8823434FF6FF544A
:100B600022400C894FF6FF7505EA042422434C8885
:100B700005EA042422434C68C4638383028430BDA5
:100B800030B500230022048C4EF6FF752C400484FF
:100B9000028C838B48F6FF7423400C884FF6FF7558
:100BA00005EA042423434DF6FF7422400C8905EA2C
:100BB000043422434C8805EA043422434C6804641C
:100BC0008383028430BD0021018041804160018126
:100BD000704770B5034600200024184618300125E0
:100BE0008D40ACB21D8CA5431D8409B1082909D1E3
:100BF00000EB6100056825F0700505600568154388
:100C000005600EE00D1FC5F34E052844056825F468
:100C1000E045056005684FF6FF7606EA0226354393
:100C2000056070BD4163704781637047C163704761
:100C3000016470470A460021018B4FF68F731940FB
:100C40001143018370470A460021018B48F6FF7368
:100C500019404FF6FF7303EA0223194301837047DB
:100C60000A460021818B4FF68F731940114381830F
:100C700070470A460021818B48F6FF7319404FF6F2
:100C8000FF7303EA02231943818370470A46002158
:100C9000018B4FF6F77319401143018370470A46E1
:100CA0000021018B4FF2FF7319404FF6FF7303EAE7
:100CB00002231943018370470A460021818B4FF6B6
:100CC000F77319401143818370470A460021818BD5
:100CD0004FF2FF7319404FF6FF7303EA02231943E3
:100CE000818370470004004000080040000C004071
:100CF000001000400014004000080140000C0140BA
:100D0000001001400A460021018B4FF6FB73194089
:100D10001143018370470A460021018B4FF6FF33D0
:100D200019404FF6FF7303EA02231943018370470A
:100D30000A460021818B4FF6FB73194011438183D2
:100D400070470A460021818B4FF6FF3319404FF65A
:100D5000FF7303EA02231943818370470A46002187
:100D6000018B4FF67F7319401143018370470A4688
:100D70000021018BC1F30E014FF6FF7303EA02233A
:100D80001943018370470A460021818B4FF67F7318
:100D900019401143818370470A460021818BC1F3BA
:100DA0000E014FF6FF7303EA022319438183704754
:100DB0000A460021018C4FF6FD731940114301844E
:100DC00070470A460021018C4FF6DF7319404FF639
:100DD000FF7303EA02131943018470470A46002196
:100DE000018C4FF6FF5319404FF6FF7303EA0223BD
:100DF0001943018470470A460021018C4DF6FF73A8
:100E000019404FF6FF7303EA023319430184704718
:100E100002894FF6F7731A40028102890A43028160
:100E2000704730B5002301248C40A3B2048C9C434E
:100E30000484048C02FA01F5ADB22C43048430BD65
:100E4000828B4FF2FF331A408283828B4FF6FF73FF
:100E500003EA01231A4382837047F0B50C46154616
:100E6000002100220026078C4EF6FF7C07EA0C07C3
:100E70000784818B028C4FF6FF7707EA043640F631
:100E8000FF4739404FF6FF7707EA052739434FF60A
:100E9000FF7707EA0337394345F6FF773A4046F4D0
:100EA00080573A4381830284F0BD828B4FF6F373FF
:100EB0001A408283828B0A4382837047F0B50C46C6
:100EC0001546002100220026078C4FF6FF6C07EA2A
:100ED0000C070784818B028C4FF6FF7707EA042604
:100EE0004FF60C7739404FF6FF7707EA03172F4389
:100EF00039434FF2FF573A4046F480773A438183B3
:100F00000284F0BD028B4FF2FF331A400283028B42
:100F10004FF6FF7303EA01231A4302837047F0B5CB
:100F20000C461546002100220026078C4FF6EF7C68
:100F300007EA0C070784018B028C4FF6FF7707EA5C
:100F4000041640F6FF4739404FF6FF7707EA0337AC
:100F500039434FF6FF7707EA052739434FF65F77A6
:100F60003A4046F010073A4301830284F0BD028BF9
:100F70004FF6F3731A400283028B0A4302837047D1
:100F8000F0B50C46154600210022068C4FF6FE7780
:100F90003E400684018B028C4FF60C7631407E1C5D
:100FA00006EA03162E4331434FF6F576324044F0FD
:100FB0000106324301830284F0BD70B505460C463C
:100FC000208850B92389A28861882846FFF7D8FF76
:100FD000E1882846FFF7CBFF25E0208804280AD1C6
:100FE0002389A28861882846FFF799FFE18828466F
:100FF000FFF788FF17E0208808280AD12389A288F4
:1010000061882846FFF75AFFE1882846FFF74DFF21
:1010100009E02389A28861882846FFF71EFFE1883E
:101020002846FFF70DFF70BD00210180418001219E
:1010300081800021C180018170472DE9F041054682
:101040000C4600260127608808B9022600E0002629
:10105000A088012801D1022700E001272088A0B93B
:101060002389A28861882846FFF78AFFE1882846FD
:10107000FFF77DFF23893A4631462846FFF74FFFA9
:10108000E1882846FFF73EFF13E02389A2886188A4
:101090002846FFF744FFE1882846FFF733FF2389FE
:1010A0003A4631462846FFF76BFFE1882846FFF7AE
:1010B0005EFFBDE8F0810146486B70470146886BD2
:1010C00070470146C86B70470146086C70471AB1FB
:1010D00083890B43838102E083898B43838170473B
:1010E0008182704702460020138A0B400BB1012019
:1010F00000E000207047CA430282704730B50246C4
:10110000002000230024158A05EA0103958905EAD9
:10111000010413B10CB1012000E0002030BDCA432E
:101120000282704741EA0203A0F8483070471AB1C2
:1011300083890B43838102E083898B4383817047DA
:1011400021B1828842F00802828004E082884FF652
:10115000F7731A408280704701894FF6F872114088
:10116000018170470A46002101894FF68F731940AB
:1011700011430181704730B504460D46294620468B
:10118000FFF7F0FF208940F00700208130BD2DE9F6
:10119000F04104460D4616461F46602D06D13B46DB
:1011A000012231462046FFF7BAFE05E03B46012208
:1011B00031462046FFF7E4FE29462046FFF7D2FFDE
:1011C000208940F007002081BDE8F08130B50C4651
:1011D00000210189C9B24FF6FF7505EA03251543C1
:1011E00025432943018130BD2DE9F04105460E46D6
:1011F00017469846002443463A4631462846FFF7AC
:10120000E5FF2C894FF6F870044044F007044FF6D0
:101210008F70044044F070042C81BDE8F081F0B57B
:1012200004460D4616461F463B4632462946204692
:10123000FFF7CCFF208940F480402081F0BD8288F8
:101240004FF68F731A40828082880A4382807047EB
:1012500002894FF6F8731A40028102890A4302811B
:10126000704702894FF67F731A40028102890A4350
:1012700002817047F0B50C4615461E46002100223B
:1012800000230189028B038C4FF6F8773940214304
:101290004FF6FC473A4040F201173A434FF6DD77EC
:1012A0003B404FF6FF7707EA06172F433B43018188
:1012B00002830384F0BD21B1828842F080028280E3
:1012C00004E082884FF67F731A408280704730F8BE
:1012D000502F02EA1142028002888BB21A4320F892
:1012E0005029704710B50446F748844209D10121BE
:1012F0008803FFF761FA00214FF48040FFF75CFAA2
:1013000032E0F248844209D101214804FFF765FA2E
:1013100000214FF40030FFF760FA25E0EC488442EA
:1013200009D101218804FFF758FA00214FF48020E9
:10133000FFF753FA18E0E748844209D10121C804B5
:10134000FFF74BFA00214FF40020FFF746FA0BE0BD
:10135000E148844208D101210805FFF73EFA002147
:101360004FF48010FFF739FA10BD2DE9FF4705460D
:101370000E460024A14600BFA046B08900B100BFC0
:101380002C8A24F44054F08804432C82AC8941F226
:101390000C608443B0883189084371890843044351
:1013A000AC81AC8A24F44074B0890443AC826846B2
:1013B000FFF71AF9C448854202D1DDF80C9001E02C
:1013C000DDF80890A88900F4004040B109EBC9009D
:1013D00000EB091031684900B0FBF1F707E009EBB9
:1013E000C90000EB091031688900B0FBF1F76420F7
:1013F000B7FBF0F004012009642101FB1078A889F3
:1014000000F4004040B1322000EBC800B0FBF1F026
:1014100000F00700044308E0322000EB08106421CC
:10142000B0FBF1F000F00F0004432C81BDE8FF8712
:101430004FF41651016000218180C18001810C218F
:10144000418100218181704710B502460020108A39
:1014500020F470600B884C8823438C882343CC880D
:1014600023431843108210BD0021018041808180F8
:10147000C180704721B1828942F40052828104E028
:1014800082894DF6FF731A4082817047028B02F405
:101490007F420283028B0A430283704721B1828913
:1014A00042F40042828103E08289C2F30E0282810B
:1014B000704721B1828A42F40062828204E0828A0B
:1014C0004FF2FF731A4082827047C1F30802828094
:1014D000704701468888C0F308007047028A4FF6BB
:1014E000F0731A400282028A0A430282704721B1D5
:1014F000828942F00202828104E082894FF6FD7304
:101500001A408281704782894FF2FF731A408281AC
:1015100082890A4382817047028A4FF6DF731A403C
:101520000282028A0A430282704721B1028A42F48F
:101530008042028204E0028A4BF6FF731A40028264
:101540007047818941F001018181704721B1828A10
:1015500042F00802828204E0828A4FF6F7731A4052
:1015600082827047028BD2B20283028B42EA01224E
:101570000283704721B1828A42F02002828204E015
:10158000828A4FF6DF731A408282704721B1828AC5
:1015900042F01002828204E0828A4FF6EF731A4012
:1015A00082827047828A4FF6FB731A408282828A57
:1015B0000A438282704721B1828A42F0020282820B
:1015C00004E0828A4FF6FD731A40828270471AB196
:1015D000838A0B43838202E0838A8B438382704732
:1015E000F0B50346002400260025002040F66A17C7
:1015F000B94200D100BF1846C1F3421401F01F06E2
:10160000012707FA06F5012C01D10C3004E0022C69
:1016100001D1103000E014301AB107682F43076081
:1016200002E00768AF430760F0BD02460020B1F555
:10163000007F00D100BF13880B400BB1012000E0F8
:101640000020704701F40072B2F5007F00D100BFA6
:10165000CA430280704770B502460024002300256B
:10166000002040F66A16B14200D100BFC1F3421516
:1016700001F01F03012606FA03F3012D02D196891A
:10168000334006E0022D02D1168A334001E0968AEB
:1016900033400C12012606FA04F41688344013B1C4
:1016A0000CB1012000E0002070BD10B50022002325
:1016B00040F66A14A14200D100BF0A1201249440EE
:1016C000A3B2DC43048010BD003801400044004058
:1016D00000480040004C0040005000402DE9F84315
:1016E00001200C23FCA200210090084601F050FBD1
:1016F000FD48D0F84900FD49B0FBF1F7384601F04C
:10170000C5FD0446F848406CF849B0FBF1F738468F
:1017100001F0BCFD0546F448D0F863000A2190FBB7
:10172000F1F7384601F0A9FD0646EF48B0F867002A
:101730004FF47A7190FBF1F7384601F09EFD814637
:10174000204601F0A8FD0746E74890F84D003A46CC
:101750000B46E7A10090EC4802F086F801200C232C
:10176000E94A0A210090002001F012FB284601F00E
:1017700092FD0746DC4890F848003A460B46E3A144
:101780000090E14802F070F801200C23DE4A142199
:101790000090002001F0FCFA304601F07CFD074685
:1017A0003A460B46DFA1D84802F05EF801200C2330
:1017B000D54A1E210090002001F0EAFACA4890F8AC
:1017C00040000090C84890F83F30B0F83D20DAA1C2
:1017D000CD4802F049F801200C23CB4A2821009083
:1017E000002001F0D5FAC04890F843000090BE48B0
:1017F00090F8423090F84120D6A1C34802F034F866
:1018000001200C23C04A32210090002001F0C0FAD0
:1018100001F0FBF8BDE8F8832DE9F84301200C2323
:10182000D3A200210090084601F0B2FAD448D0F8C3
:101830004900AE49B0FBF1F7384601F027FD0446F8
:10184000CF48406CA949B0FBF1F7384601F01EFDC6
:101850000546CB48D0F863000A2190FBF1F73846E3
:1018600001F00BFD0646C648B0F867004FF47A71E8
:1018700090FBF1F7384601F000FD8146204601F06B
:101880000AFD0746BE4890F84D003A460B4698A11F
:101890000090BC4801F0E8FF01200C23B94A0A215E
:1018A0000090002001F074FA284601F0F4FC07468D
:1018B000B34890F848003A460B4694A10090B148CE
:1018C00001F0D2FF01200C23AE4A14210090002029
:1018D00001F05EFA304601F0DEFC07463A460B4660
:1018E00090A1A84801F0C0FF01200C23A54A1E21A9
:1018F0000090002001F04CFAA14890F840000090C0
:101900009F4890F83F30B0F83D208BA19D4801F0F2
:10191000ABFF01200C239B4A28210090002001F0FE
:1019200037FA974890F843000090954890F8423075
:1019300090F8412087A1934801F096FF01200C23E5
:10194000904A32210090002001F022FA01F05DF867
:10195000BDE8F8832DE9F04F8FB08948D0F84900F1
:101960006249B0FBF1F4204601F090FC82468448C5
:10197000406C5E49B0FBF1F4204601F087FC8346E1
:101980007F48D0F863000A2190FBF1F4204601F073
:1019900074FC0E900E9801F07EFC04460D465846ED
:1019A00001F079FC06460F46504601F074FC804673
:1019B0008946734890F84300714991F84210704A83
:1019C00092F841206E4B93F84030CDE90A32CDE9D0
:1019D0000C106B4890F83F006949B1F83D10CDE913
:1019E0000645CDE90810664890F84800CDE9026741
:1019F0000490634890F84D0042464B46624900907F
:101A0000624801F031FF4FF416726049604800F0FF
:101A1000D7FB0FB0BDE8F08F8AB05EA000680990D8
:101A20005DA0006808905DA0006807905CA207CAEE
:101A300004AB07C35DA207CA01AB07C35EA0006881
:101A4000009000F0C7FA0121002000F0EEFD6420B4
:101A500000F072FA002409E00C2201A9574800F0B6
:101A60008DFC322000F068FA601CC4B2032CF3DB5A
:101A70004FF4FA7000F060FA0021084600F0D5FD3E
:101A80004FF4FA7000F058FAC3E000F0A0FD30B156
:101A900004226946494800F071FC00F08AFA48487F
:101AA000008800F40040B0B145480578002405E006
:101AB0004448005D44490855601CC4B2AC42F7DBA1
:101AC0000020414948550C223C4800F09BFA0C226A
:101AD0003D493E487CE080E0475053207265636595
:101AE0006976653A000000004C000020A0860100E5
:101AF0004C6F6E6769747564653A252E35662025CE
:101B00003163202020000000DC0500204C61746956
:101B1000747564653A252E356620253163202020B2
:101B200000000000416C7469747564653A252E31BB
:101B3000666D2020202020005554432044617465A8
:101B40003A253034642F253032642F25303264201A
:101B5000202000005554432054696D653A253032E9
:101B6000643A253032643A25303264202020000067
:101B70004C4F524120726563656976653A000000FA
:101B8000B500002010060020205F0008760300202A
:101B900000440040C1000700C0060123C006010345
:101BA000C00009004208620017030000C00009FFDE
:101BB000FF086200170B0000A0010203004800406C
:101BC0004200002042060020CE05002000380140DF
:101BD00000F018FA00200F4908800F48008800F430
:101BE0000040B0B10C480678002405E00B48005DC9
:101BF0000B490855601CC4B2B442F7DB0020084909
:101C000088554FF41672074800F0B8FB00200249CF
:101C100008803AE74200002046000020A20F002082
:101C200052140020004800400CB5002001900090A4
:101C30008748006840F480308549086000BF8448C8
:101C4000006800F4003000900198401C019000985A
:101C500018B90198B0F5A06FF1D17D48006800F483
:101C6000003010B10120009001E0002000900098A9
:101C7000012859D17748006840F004007549086090
:101C80000846006840F0020008600846006840F01E
:101C9000010008606E482430006840F080506C49B4
:101CA00024310860C8146C49086000BF6A48406865
:101CB00000F010000028F9D1654808300068644938
:101CC0000831086008460068086008460068086037
:101CD0000846006820F47D0008600846006840F46B
:101CE0009A0008605A48006840F0807058490860BF
:101CF00000BF5748006800F000700028F9D0544831
:101D00000830006820F00300514908310860084697
:101D1000006840F00300086000BF4D4808300068CC
:101D200000F00C000C28F8D10CBD10B54848006834
:101D300040F48070464908604548083000684749CB
:101D40000840434908310860414800684449084058
:101D50003F4908600846006820F4802008603C483D
:101D60000830006820F47D003949083108600020FF
:101D7000091D0860FFF758FF4FF0006039490860FF
:101D800010BD70B500220020002100240023304D3A
:101D900008352D6805F00C0232B1042A10D0082A4B
:101DA00012D00C2A39D113E0294D2D1D2D68C5F311
:101DB00042335D1C0126AE40F5032B4E356038E002
:101DC0002A4D294E356034E0294D274E356030E0EC
:101DD0001F4D08352D6805F470101D4D08352D6810
:101DE00005F44001234D05EB90452878012505EBCE
:101DF0009151174D08352D6805F4803434B91B4DC9
:101E00004543B5FBF1F5184E356005E0184D4543E7
:101E1000B5FBF1F5144E35600BE00D4D2D1D2D6811
:101E2000C5F342335D1C0126AE40F5030E4E35600E
:101E300000BF00BF064D08352D68C5F303150E4ED3
:101E4000725D094D2D68D540074E356070BD0000AC
:101E500000380240003C0240007000400CC0FF8887
:101E6000FEFFFEEE08ED00E01C0000200024F40060
:101E700000127A002000002029000020704700BFD7
:101E8000FEE700BFFEE700BFFEE700BFFEE77047CA
:101E900070477047704710B501218807FFF72EF98A
:101EA00070B101218807FFF73AF906480078401C15
:101EB0000449087008460078052801D10020087000
:101EC00010BD00003A0000204FF0E021096921F028
:101ED00004014FF0E0221161C21700EB5272C2F30D
:101EE000C702234B1A701946097801EB4102C2EB75
:101EF000C1114FF6FF7202EAC1011E4A11807047FC
:101F000001461B4A12784A434FF0E0235A610022EF
:101F10009A6101221A6100BF4FF0E022106900F0BF
:101F200001021AB100F48032002AF5D000224FF0ED
:101F3000E0231A619A61704701460E4A12884A43AB
:101F40004FF0E0235A6100229A6101221A6100BF1A
:101F50004FF0E022106900F001021AB100F4803263
:101F6000002AF5D000224FF0E0231A619A617047F1
:101F70003E000020400000201CB501210220FEF799
:101F8000D7FB01208DF8040000208DF80600012009
:101F90008DF8070002208DF80500000200906946C8
:101FA0000B48FEF795F94FF400710948FEF70AFA5D
:101FB0001CBD10B54FF400710548FEF705FAC820A6
:101FC000FFF7BAFF4FF400710148FEF7FBF910BDAF
:101FD0000004024010B52020FFF776FF4FF4A06008
:101FE000FEF7A4F8FFF7C8FF00F0B6FA00F002FB16
:101FF0004FF4165000F01EF84FF4165000F0E6F9BA
:1020000010BD00002DE9F04107460D46164600249C
:102010000CE0295D3846FFF758FA00BF40213846EA
:10202000FFF703FB0028F9D0601C84B2B442F0DB58
:10203000BDE8F08110B588B0044601218803FEF7A1
:1020400088FB01210846FEF773FB5748FFF74AF962
:10205000072209215548FEF7C4F907220A215348EF
:10206000FEF7BFF94FF4C060029002208DF80C001B
:102070008DF80D0000208DF80E0001208DF80F0066
:1020800002A94A48FEF724F904940020ADF8140090
:10209000ADF81600ADF81800ADF81C000C20ADF836
:1020A0001A0004A94048FFF760F901213E48FFF7F4
:1020B000E1F9012240F225513B48FFF791FA252032
:1020C0008DF8040003208DF805008DF8060001202E
:1020D0008DF8070001A8FEF72EF841F61F41632096
:1020E00000F03DFB00203249088000213148FEF716
:1020F000DBFC40212C48FFF7A5FA08B010BD10B555
:1021000040F225512848FFF7A6FA00B32648FFF70A
:10211000E0F9C4B22648008800F40040B8B9244869
:102120000088B0F5167F13DA00212248FEF77CFC08
:102130001F48008818B901211E48FEF7B5FC1C484D
:1021400001880088401C1A4A10801B48445405E04E
:102150001748008840F400401549088010BD0FB4AE
:1021600038B505A800901548009A049901F090FB35
:1021700000200090114801F079F885B200240DE0AC
:1021800000BF40210848FFF750FA0028F9D00B485B
:10219000015D0548FFF799F9601C84B2AC42EFDBA2
:1021A00038BC5DF814FB000000380140000002401C
:1021B0004200002000140040420600209A0800203F
:1021C0002DE9F04107460D46164600240CE0295D36
:1021D0003846FFF77AF900BF40213846FFF725FA65
:1021E0000028F9D0601C84B2B442F0DBBDE8F08175
:1021F00010B588B0044601214804FEF7BBFA01215E
:102200000846FEF795FA5748FFF76CF80C20029045
:1022100002208DF80C008DF80D0000208DF80E00C6
:1022200001208DF80F0002A94F48FEF751F8072250
:1022300002214D48FEF7D5F8072203214A48FEF750
:10224000D0F804940020ADF81400ADF81600ADF8F5
:102250001800ADF81C000C20ADF81A0004A9414884
:10226000FFF783F801213F48FFF704F9012240F20C
:1022700025513C48FFF7B4F926208DF804000220D0
:102280008DF8050000208DF8060001208DF807006C
:1022900001A8FDF750FF41F61F41632000F08BFAC3
:1022A00000203249088000213148FEF7FDFB402123
:1022B0002C48FFF7C7F908B010BD10B540F2255102
:1022C0002848FFF7C8F900B32648FFF702F9C4B25F
:1022D0002648008800F40040B8B924480088B0F5CA
:1022E000167F13DA00212248FEF79EFB1F48008864
:1022F00018B901211E48FEF7D7FB1C480188008849
:10230000401C1A4A10801B48445405E017480088B6
:1023100040F400401549088010BD0FB438B505A839
:1023200000901548009A049901F0B2FA002000903C
:10233000114800F09BFF85B200240DE000BF402152
:102340000848FFF772F90028F9D00B48015D0548ED
:10235000FFF7BBF8601C84B2AC42EFDB38BC5DF821
:1023600014FB000000440040000002404400002034
:1023700000100040F20A00204A0D00202DE9F04133
:1023800007460D46164600240CE0295D3846FFF747
:102390009CF800BF40213846FFF747F90028F9D0E4
:1023A000601C84B2B442F0DBBDE8F08170B5044635
:1023B0000D46E1B26348FFF788F800BF802161480D
:1023C000FFF733F90028F9D0204670BD10B588B06A
:1023D000044601218804FEF7CDF901210220FEF711
:1023E000A7F95848FEF77EFF4FF4406002900220A4
:1023F0008DF80C008DF80D0000208DF80E000120E6
:102400008DF80F0002A95048FDF762FF07220A214C
:102410004D48FDF7E6FF07220B214B48FDF7E1FF92
:1024200004940020ADF81400ADF81600ADF81800C3
:10243000ADF81C000C20ADF81A0004A94148FEF7C5
:1024400094FF01213F48FFF715F8012240F2255182
:102450003C48FFF7C5F827208DF8040003208DF8CD
:10246000050001208DF806008DF8070001A8FDF792
:1024700062FE40213348FFF7E5F808B010BD10B503
:1024800040F225512F48FFF7E6F810B32D48FFF72B
:1024900020F8C4B22D48008800F40040C8B92B4889
:1024A000008800F4804060B10A2C03D00020274946
:1024B000088021E02548008840F400402349088036
:1024C0001AE00D2C06D12148008840F480401F49B5
:1024D000088011E01D480088C0F30E001C490C5410
:1024E0001A480088401C1949088008460088B0F541
:1024F000167F01DB0020088010BD0FB438B505A899
:1025000000901448009A049901F0C2F9002000904C
:10251000104800F0ABFE85B200240DE000BF402162
:102520000848FFF782F80028F9D00A48015D0548FD
:10253000FEF7CBFF601C84B2AC42EFDB38BC5DF829
:1025400014FB000000480040000402404600002048
:10255000A20F0020FA1100201CB501210420FEF773
:10256000E7F84FF40050009000208DF8040001209F
:102570008DF8070069461D48FDF7AAFE1CBD10B581
:10258000044614B101201A4908701948007898B11E
:102590004FF400511548FDF7FDFE68B96420FFF7C0
:1025A000CBFC0020124908704FF400510F48FDF792
:1025B000F1FE50B9012010BD4FF400510B48FDF75A
:1025C000E9FE012801D10A4908700020F3E710B59F
:1025D0000120FFF7D4FF044634B14FF47A70FFF7BF
:1025E000ABFC0CB1012010BD00BFFCE700080240AD
:1025F000480000201CB501210220FEF799F80620B2
:10260000009001208DF804008DF8050000208DF861
:10261000060002208DF8070069462B48FDF758FE9A
:1026200006212948FDF7D0FE1CBD70B505460C46B5
:102630002DB924B906212448FDF7C6FE1FE0012D5F
:1026400009D144B904212048FDF7BEFE02211E48ED
:10265000FDF7B8FE13E055B9012C08D102211A4844
:10266000FDF7B2FE04211848FDF7ACFE07E0012D8E
:1026700005D1012C03D106211348FDF7A3FE70BD3F
:1026800010B50446042221461048FFF777FE10BD1E
:1026900070B50F480088C0F30E05002405E00D4812
:1026A000005D0D490855601C84B2AC42F7DB002088
:1026B0000A494855084948554FF4167207490348D6
:1026C000FFF77EFD70BD00000004024000440040A2
:1026D00046000020A20F0020521400204A0D0020C6
:1026E00010B501216048FEF709FD68B15F48008818
:1026F00040F400405D49088001215B48FEF70FFD72
:1027000000215948FEF7D0F910BD10B501215848F5
:10271000FEF7F4FC68B15748008840F40040554982
:10272000088001215248FEF7FAFC00215048FEF7CC
:10273000BBF910BD10B501214F48FEF7DFFC68B1B1
:102740004E48008840F400404C49088001214A4826
:10275000FEF7E5FC00214848FEF7A6F910BD7FB55D
:1027600005460C4601212020FEF704F80195ADF83E
:1027700000400020ADF80800ADF8020069463A4874
:10278000FEF718F9012211463748FEF7A0FC012197
:102790003548FEF789F92C208DF80C0000208DF8C3
:1027A0000D0003208DF80E0001208DF80F0003A806
:1027B000FDF7C1FC7FBD7FB505460C460121102009
:1027C000FDF7D8FF0195ADF800400020ADF80800F6
:1027D000ADF8020069462648FEF7ECF801221146E2
:1027E0002348FEF774FC01212148FEF75DF92B20F8
:1027F0008DF80C0000208DF80D0003208DF80E00E0
:1028000001208DF80F0003A8FDF795FC7FBD7FB573
:1028100005460C4601210420FDF7ACFF0195ADF8FB
:1028200000400020ADF80800ADF8020069461448E9
:10283000FEF7C0F8012211460F48FEF748FC0121BF
:102840000D48FEF731F91E208DF80C0000208DF8A0
:102850000D0003208DF80E0001208DF80F0003A855
:10286000FDF769FC7FBD000000140040420000201D
:1028700000100040440000200008004046000020F6
:10288000000C0040032000BF0100A0F10102D0B203
:10289000FAD1704710B52021F748FDF795FD40218A
:1028A000F548FDF78FFDFFF7EDFF2021F248FDF71A
:1028B00089FD10BD10B52021EF48FDF783FDFFF71E
:1028C000E1FF4021EC48FDF77DFDFFF7DBFF4021F4
:1028D000E948FDF779FDFFF7D5FF10BD70B5044657
:1028E00000251BE004F0800020B12021E248FDF724
:1028F00069FD03E02021E048FDF766FDFFF7C2FF18
:102900004021DD48FDF75EFDFFF7BCFF4021DA48BE
:10291000FDF75AFD6006040E681CC5B2082DE1DB08
:1029200070BD10B52021D448FDF74CFD4021D248A0
:10293000FDF748FDFFF7A6FF2021CF48FDF744FD36
:10294000FFF7A0FF4021CC48FDF73EFDFFF79AFFBF
:1029500010BD70B505460C46FFF7E3FF7820FFF782
:10296000BDFFFFF7A7FF1CB14020FFF7B7FF02E054
:102970000020FFF7B3FFFFF79DFF2846FFF7AEFFEC
:10298000FFF798FFFFF786FF70BD10B504461CB92E
:102990000021A620FFF7DDFF012C03D10021A72095
:1029A000FFF7D7FF10BD10B504463CB90021C82081
:1029B000FFF7CFFF0021A120FFF7CBFF012C07D1AC
:1029C0000021C020FFF7C5FF0021A020FFF7C1FFB5
:1029D00010BD10B500218D20FFF7BBFF0021142092
:1029E000FFF7B7FF0021AF20FFF7B3FF10BD10B511
:1029F00000218D20FFF7ADFF00211020FFF7A9FF78
:102A00000021AE20FFF7A5FF10BD70B500242BE01C
:102A100004F1B001C8B20021FFF79BFF0021084676
:102A2000FFF797FF00211020FFF793FFFFF779FFD3
:102A30007820FFF753FFFFF73DFF4020FFF74EFFE1
:102A4000FFF738FF002509E08C4901EBC501085D5F
:102A5000FFF744FFFFF72EFF681CC5B2802DF3DBA4
:102A6000FFF718FF601CC4B2082CD1DB70BD70B535
:102A700000240CE0002506E00020804901EBC501A0
:102A80000855681CC5B2802DF6DB601CC4B2082C4A
:102A9000F0DBFFF7BAFF70BDF0B514460B46CF1759
:102AA00001EB5777C7F3C702CF1701EB5777FF103A
:102AB000A1EBC707FEB20123B340DDB24CB16F4BAF
:102AC00003EBC0039B5C2B436C4F07EBC007BB546D
:102AD0001AE06A4B03EBC0039B5CDB43674F07EBD9
:102AE000C007BB54654B03EBC0039B5C2B43634F98
:102AF00007EBC007BB54614B03EBC0039B5CDB439C
:102B00005E4F07EBC007BB54F0BD2DE9FF4F84B00B
:102B100081468A460020029083460698A0EB09046D
:102B20000798A0EB0A06CDF80490CDF800A0002C81
:102B300001DD012705E00CB9002702E04FF0FF3767
:102B40006442002E02DD4FF0010806E016B94FF096
:102B5000000802E04FF0FF386642B44201DD25462E
:102B600000E03546002003901DE0009AD1B2019AA2
:102B7000D0B2119AFFF790FF029820440290B3441C
:102B80000298A84205DD0298401B02900198384443
:102B90000190AB4504DDABEB050B00984044009081
:102BA0000398401C0390691C03988842DDD308B049
:102BB000BDE8F08F2DE9F04306460F46904600250C
:102BC000444643E03A1BD1B27219D0B20122FFF75A
:102BD00063FF3A1BD1B2721BD0B20122FFF75CFF38
:102BE0003A19D1B2721BD0B20122FFF755FF3A1940
:102BF000D1B27219D0B20122FFF74EFF7A19D1B2C9
:102C00003219D0B20122FFF747FF7A1BD1B2321935
:102C1000D0B20122FFF740FF7A1BD1B2321BD0B2F3
:102C20000122FFF739FF7A19D1B2321BD0B201224B
:102C3000FFF732FF6D1C05FB05F004FB040008FBE9
:102C40001809B9F1000F01DD641E6D1E60006043BC
:102C500008FB08F18842B5DABDE8F0832DE9FE4FA4
:102C60000746884692461C460197CDF80080082CFE
:102C700006D14FF0060923E000040240AA16002006
:102C80002046E31704EB5373DB1021464FEAE47C44
:102C900004EB5C7C4FEAEC0CA4EBCC0CBCF1000F19
:102CA00002D04FF0010C01E04FF0000C63442246CB
:102CB00004EBD27C4FEA6C0C03FB0CF303F0FF092E
:102CC000AAF12000C6B200255EE0082C07D106EB71
:102CD0004600FE4901EB400010F805B01DE00C2C49
:102CE00007D106EB4600FA4901EB800010F805B069
:102CF00013E0102C05D1F74800EB061010F805B0D2
:102D00000BE0182C07D106EBC600F34901EB80005D
:102D100010F805B001E0BDE8FE8F002002901CE035
:102D20000BF0010028B1414638460C9AFFF7B4FE7B
:102D300009E00C9808B9012000E000200246414655
:102D40003846FFF7A9FE4FEA6B0B08F1010000F0CF
:102D5000FF080298401CC0B2029002980828DFDBEE
:102D6000781CC7B2082C0BD004EBD4714A1001991F
:102D7000791A8A4204D1019F00980830C0B20090AD
:102D8000DDF80080681CC5B24D459EDB00BFC2E780
:102D90002DE9F84106460F4614461D46DDF81C8015
:102DA00013E0CDF8008022782B4639463046FFF7F5
:102DB00055FF082D02D1B01DC6B205E0284605EB2F
:102DC000D07106EB6101CEB2641C2078202802DBB2
:102DD00020787E28E5DDBDE8F88110B502460120A7
:102DE00000E050430B00A1F10104E1B2F9D110BDA4
:102DF0002DE9FF4F82B0064691461F46DDE90F4A96
:102E00004FF0000B082C01D14FF0020B002530E0F1
:102E1000781B401EC1B20A20FFF7DFFFB9FBF0F0BC
:102E20000A21B0FBF1F201FB1208B8F1000F0ED13C
:102E300004EBD4710BEB610101FB0561C8B22346C1
:102E40003022CDE900A40399FFF708FF0FE004EB5F
:102E5000D4710BEB610101FB0561C8B208F13001CF
:102E6000CAB22346CDE900A40399FFF7F7FE681C18
:102E7000C5B2BD42CCDB06B0BDE8F08F2DE9FC4FFA
:102E80000746884616461C46BB46CDF804802046B9
:102E9000E21704EB5272D2102146E31704EB53738E
:102EA000DB10A4EBC3030BB1012300E000231A44A1
:102EB00062430092002554E0102C05D1874800EBB6
:102EC000461010F805A01BE0182C07D106EBC60031
:102ED000834901EBC00010F805A011E0202C05D1BA
:102EE000804800EBC61010F805A009E0402C05D181
:102EF0007D4800EB462010F805A001E0BDE8FC8FFE
:102F00004FF000091CE00AF0010028B141463846A4
:102F10000B9AFFF7C1FD09E00B9808B9012000E00A
:102F20000020024641463846FFF7B6FD4FEA6A0ADE
:102F300008F1010000F0FF0809F1010000F0FF09AD
:102F4000B9F1080FDFDB781CC7B2A7EB0B00A0427A
:102F500004D15F4601980830C0B20190DDF80480CA
:102F60006D1C00988542A7D300BFC7E708B580460F
:102F700089469246002600274BE04FB9102332467F
:102F800018218020CDF800A0FFF778FF701CC6B292
:102F9000464522D14FF0000B1AE0012410E0002535
:102FA0000AE0524800EBC400415D601E4F4A02EB4C
:102FB000C0004155681CC5B2082DF2DB601CC4B2CC
:102FC000902CECDBFFF721FD0BF1010000F0FF0B73
:102FD0004FEA09105845E0DC0026781CC7B2102FD4
:102FE00000D10027012410E000250AE03F4800EB53
:102FF000C400415D601E3D4A02EBC0004155681CA3
:10300000C5B2082DF2DB601CC4B2902CECDBFFF7DC
:10301000FCFCB2E72DE9FF4F05460E4617461C465D
:10302000DDF838904FF0000A0095B3462046E217CD
:1030300004EB5272D2102146E31704EB5373DB10FA
:10304000A4EBC3030BB1012300E000231A44D4B264
:103050004FF0000856E0002003904CE00D9810F867
:103060000A0002900AF1010A002001901DE0029876
:1030700000F0010028B14A4631462846FFF70CFD12
:103080000AE0B9F1000F01D1012000E00020024662
:1030900031462846FFF700FD029840100290701C50
:1030A000C6B20198401CC0B2019001980828DEDB2E
:1030B000681CC5B20098281AB84204D1009D0BF1D3
:1030C000080000F0FF0B5E46039811E07041000815
:1030D000984300080C480008FC4D0008585B0008A5
:1030E000585C0008A05C0008205D0008AA160020BB
:1030F000401CC0B203900398B842AFDB08F1010056
:1031000000F0FF08A045A6DBBDE8FF8F1CB501213C
:103110000220FDF70DFB6020009002208DF80500D5
:1031200001208DF804008DF806008DF8070069462F
:103130004D48FDF7CDF860214B48FDF743F91020CD
:10314000009001208DF8040002208DF80500002079
:103150008DF8060001208DF8070069464248FDF70A
:10316000B7F810214048FDF72DF910213E48FDF732
:103170002BF9C820FEF7E0FE10213B48FDF722F9AD
:103180000021AE20FFF7E5FB00210846FFF7E1FB39
:1031900000211020FFF7DDFB00214020FFF7D9FBC5
:1031A00000218120FFF7D5FB0021CF20FFF7D1FBC5
:1031B0000021A120FFF7CDFB0021C820FFF7C9FBAC
:1031C0000021A620FFF7C5FB0021A820FFF7C1FBC7
:1031D00000213F20FFF7BDFB0021D320FFF7B9FB03
:1031E00000210846FFF7B5FB0021D520FFF7B1FB12
:1031F00000218020FFF7ADFB0021D920FFF7A9FBBC
:103200000021F120FFF7A5FB0021DA20FFF7A1FB49
:1032100000211220FFF79DFB0021DB20FFF799FB27
:1032200000214020FFF795FB00212020FFF791FBB4
:1032300000210220FFF78DFB00218D20FFF789FB85
:1032400000211420FFF785FB0021A420FFF781FB5C
:103250000021A620FFF77DFBFFF709FC0021AF202E
:10326000FFF777FB1CBD000000040240421C10F871
:10327000011B0029FBD1801A7047C10F80EAE07062
:103280000844CA079623002100F068B8962300225C
:10329000114600F063B800F0004230F000400AD060
:1032A000C10D01F56071C0F3160042EA0151C20878
:1032B00040071143704700200146704730B50B4668
:1032C000014600202022012409E021FA02F59D4256
:1032D00005D303FA02F5491B04FA02F52844151E2A
:1032E000A2F10102F1DC30BD2DE9F05F05460020BE
:1032F00092469B4688460646814640241BE0284667
:1033000041464746224600F030FA53465A46C01A14
:10331000914110D311461846224600F017FA2D1A93
:1033200067EB01084F4622460120002100F00EFA0B
:1033300017EB00094E41201EA4F10104DFDC4846D2
:1033400031462A464346BDE8F09F0029A8BF704792
:10335000401C490008BF20F00100704710B4B0FACB
:1033600080FC00FA0CF050EA010404BF10BC704766
:1033700049B1CCF1200421FA04F411FA0CF118BF80
:10338000012121430843A3EB0C01CB1D4FEA00614F
:103390004FEA102042BF002010BC704700EBC35022
:1033A00010440029A4BF10BC7047401C490008BF4E
:1033B00020F0010010BC70472DE9FE4F804681EAE5
:1033C0000300C00F0C46009021F0004123F000459F
:1033D000B8EB0200A94105D24046214690461C4662
:1033E0000B46024623F00040104347D0270DC7F399
:1033F0000A00C3F30A510290401A019040286BDA88
:10340000C3F3130040F4801B0098924620B10023C0
:10341000D2EB030A63EB0B0B01985946C0F1400253
:10342000504600F093F906460D4650465946019A1B
:1034300000F0ABF910EB08006141002487EA11525B
:1034400084EAE7731A4340D0009A62B3019A012AD2
:103450004FEA075215DC001B61EB02014FF00042FE
:1034600002EA0752CDE90042001C41F580113246C4
:103470002B4600F0ABF903B0BDE8F08F4046214683
:10348000F9E7001B61EB0201001C41F580130018F5
:103490005B412018A2F5001747EB030140EAD57005
:1034A000B6196D4111E06D084FEA360645EAC07560
:1034B0004FEA0752001B61EB0201001C41F580112D
:1034C00049084FEA30000019514132462B4603B0FB
:1034D000BDE8F04F00F06BB90098012240000023D6
:1034E000D0EB020263EBE073009821464FEAE074F0
:1034F000B8EB000061EB0401E9E783F000435BE710
:1035000081F0004158E72DE9FE4F81EA030404F001
:10351000004421F0004100944FF0000B23F00043E1
:1035200050EA01045ED052EA03045BD0C3F30A54AC
:10353000C1F30A552C44A4F2F3340194A0FB0254C5
:10354000C1F3130141F48011C3F3130343F4801357
:1035500001FB024400FB034E840A970A44EA8154AB
:1035600047EA8357A4FB076802958D0A05FB078588
:103570004FEA932C04FB0C542705029D4FEA065892
:1035800047EA1637B5EB08056EEB070C870E920E6F
:1035900047EA811742EA8312A7FB0201B6EB0B014F
:1035A00064EB00042B0D43EA0C335E1844EB1C5013
:1035B000DA465146E7FB0201C5F313044FEA0B3329
:1035C00043EA14534FEA0432019C43EA0603A4F190
:1035D0000C040294009CCDE900B400F0F7F803B0AD
:1035E000BDE8F08F00200146F9E72DE9F04D81EAB2
:1035F000030404F0004B21F0004514464FF0000A8C
:1036000023F0004150EA050220D054EA01021DD007
:10361000C5F30A570246C5F31303C1F31300C1F300
:103620000A5640F4801543F48013A7EB0608101BDC
:10363000D64608F2FD3873EB050002D308F1010805
:1036400001E092185B41B8F1000F03DA0020014657
:10365000BDE8F08D00204FF48011064684460EE050
:10366000171B73EB050705D3121B63EB050306431A
:103670004CEA010C49084FEA300092185B4150EACD
:103680000107EDD152EA030012D082EA040083EA76
:103690000501084305D0101BAB4106D201220023CF
:1036A00006E000224FF0004302E06FF001025310E9
:1036B0001AEB06004CEB085110EB0A0041EB0B0132
:1036C000BDE8F04D00F073B8C1F30A52C1F3130125
:1036D00040F2FF3341F480119A4202DA00200146A1
:1036E000704740F233439A42A2F2334202DC524224
:1036F00000F03BB800F02AB830B5041E71F10004A8
:1037000004DB4FF00044404264EB0101141E73F1EE
:10371000000405DB1C464FF00043524263EB0403F8
:10372000994208BF904230BD064C074D06E0E06864
:1037300040F0010394E8070098471034AC42F6D3F8
:10374000FCF7DCFC905F0008B05F0008202A04DB77
:10375000203A00FA02F1002070479140C2F12003A4
:1037600020FA03F3194390407047202A04DB203AE3
:1037700021FA02F00021704721FA02F3D040C2F191
:1037800020029140084319467047202A06DBCB17D8
:10379000203A41FA02F043EAE07306E041FA02F30C
:1037A000D040C2F12002914008431946704710B53D
:1037B000141E73F1000408DA401C41F10001921854
:1037C0005B411A4301D120F0010010BD2DE9F04DFD
:1037D00092469B4611B1B1FA81F202E0B0FA80F252
:1037E00020329046FFF7B2FF04460F4640EA0A0037
:1037F00041EA0B0153465A46084313D0114653EA97
:10380000010019D0C8F140025046FFF7AEFF05464F
:103810000E46504659464246FFF798FF084305D0EA
:10382000012004E020463946BDE8F08D0020054324
:1038300046EAE0762C4337430A986305E40AA0EB96
:1038400008000022FD0A44EA47540A3002D500204D
:103850000146E9E7010510196941DDE9084500194C
:103860006941BDE8F04DA2E70FB4084B10B504A9BB
:1038700002AA039800F0E0F8044602A9002000F034
:1038800072FC204610BC5DF814FB00006741000884
:1038900037B514460846064B6A46214600F0CCF878
:1038A00004466946002000F05EFC20463EBD000054
:1038B0006741000802E008C8121F08C1002AFAD1B7
:1038C00070477047002001E001C1121F002AFBD1A0
:1038D000704700002DE9FF5FDDE90220010DDDF8F2
:1038E00038B0024318D044F61050A1F2FF314143E2
:1038F0000D140F98012820D0A5EB0B00401C5FEAA7
:10390000000A4FF00004474EDFF81C91A0465046D5
:1039100016D5CAF1000728E00F98012443A2012818
:1039200008D0002100980F9BC0E90021C0E90243A4
:10393000BDE8FF9F6FEA0B01F4E7CBF10000DEE783
:10394000074612E0F80707D022463346404649466C
:10395000FFF7D9FD80468946224633461046194670
:10396000FFF7D1FD04460E467F10002FEAD1DDE9B6
:103970000201BAF1000F42464B4602DAFFF7C3FDDF
:1039800001E0FFF732FE04460E460022284BFFF707
:10399000B3FE03D84FF0FF30014607E00022254B6D
:1039A00020463146FFF708FDFFF78EFE102409E0A0
:1039B000002C0ADB0A220023FFF796FC019B303221
:1039C0001A55641E50EA0102F2D1641C019AC4F136
:1039D000110314440F9A012A03D0012208430DD188
:1039E0000AE0084304D000204FF0110B0F9080E74D
:1039F000A3EB0B056D1E0DE05B4504DD4FF00002EF
:103A000005F1010504E003DA4FF00002A5F101051C
:103A1000002AECD000980F99C0E90231C0E90045B6
:103A200086E70000000024400000F03F3000000066
:103A30000000F0430000E03F2DE9FF4F95B09B46AA
:103A40008946064600250FE2252877D1002427461F
:103A5000F84A0121059400E0044316F8013F203B99
:103A600001FA03F01042F7D130782A2811D06FF014
:103A70002F033078A0F13002092A16D8059A44F0B5
:103A8000020402EB820203EB42021044761C059012
:103A9000EFE759F8042B0592002A03DA504244F468
:103AA0000054059044F00204761C30782E2816D17C
:103AB00016F8010F44F004042A280DD06FF02F02ED
:103AC0003078A0F13003092B09D807EB870302EB0C
:103AD0004303C718761CF3E759F8047B761C30784B
:103AE0006C280FD006DC4C2817D068280DD06A2827
:103AF00014D104E0742810D07A280FD10DE044F4DA
:103B000000140AE044F4801401E044F44014727894
:103B1000824202D104F58014761C761C3078662827
:103B20000BD013DC582877D009DC002875D0452845
:103B3000F6D04628F4D047281AD19DE118E0632832
:103B400035D0642879D0652812D195E1702873D0DA
:103B500008DC6728F1D069286FD06E280DD06F2857
:103B600006D1B5E073282CD0752875D0782874D08C
:103B70005A46179990476D1C75E1C4F3025002280C
:103B800009D003280DD0D9F8001004280DD00D60FD
:103B900009F1040967E1D9F80010EA17C1E90052F8
:103BA000F6E7D9F800100D80F2E70D70F0E719F88C
:103BB000041B8DF8001000208DF80100EA4601205A
:103BC00003E059F804AB4FF0FF3061074FF00001FC
:103BD00002D40DE008F101018846B9420FDA8045B0
:103BE000F8DB1AF808100029F4D108E008F1010107
:103BF00088468142FADB1AF808100029F6D10598A8
:103C00005B46A0EB080721463846179A00F094FA65
:103C1000284400EB080507E04DE029E10DE01AF823
:103C2000010B5A4617999047B8F10108F7D25B4645
:103C300021463846179A13E142E00A220092C4F363
:103C400002524FF0000A022A08D059F804CB032A86
:103C50004FEAEC710AD00DE029E02AE009F10701F2
:103C600021F00702F2E802C1914609E00FFA8CFC4C
:103C70004FEAEC71042A03D14FFA8CFC4FEAEC7145
:103C8000002907DA0A460021DCF1000C61EB020191
:103C90002D2202E0220504D52B228DF804200122DA
:103CA00003E0E20701D02022F7E7904659E00A211D
:103CB00002E010220DE010214FF0000A00910BE00D
:103CC00010224FF0000A44F004040827009203E099
:103CD00008224FF0000A0092C4F30252022A05D0D3
:103CE00059F804CB0021032A08D009E009F10701A3
:103CF00021F00702F2E802C1914605E01FFA8CFCB0
:103D0000042A01D10CF0FF0C4FF00008220728D53F
:103D1000702806D0009B83F0100353EA0A0305D0F5
:103D20000EE040228DF80420012208E05CEA010246
:103D300006D030228DF804208DF80500022290462E
:103D4000009B83F0080353EA0A030AD15CEA0102EC
:103D500001D1620705D530228DF804204FF001080B
:103D60007F1E582804D034A003900EA802900DE0C6
:103D700036A0F9E753466046009AFFF7B5FA844645
:103D80000398825C0298401E029002705CEA010077
:103D9000F0D1029806A9081A00F1200A600702D59E
:103DA00024F4803400E00127574502DDA7EB0A0028
:103DB00000E0002000EB0A01009005984144401A01
:103DC0000590E00306D45B462146179A059800F05B
:103DD000B3F90544002706E001A85A46C05D1799CB
:103DE00090476D1C7F1C4745F6DBE0030CD55B4616
:103DF0002146179A059800F09FF9054404E0302009
:103E00005A46179990476D1C0099481E009000294A
:103E1000F5DC08E0029802995A460078491C0291A4
:103E2000179990476D1CBAF10001AAF1010AF1DC63
:103E300065E100000928010030313233343536376E
:103E400038396162636465660000000030313233E6
:103E50003435363738394142434445460000000086
:103E600000F058F90544761C307800287FF4ECAD5A
:103E700019B02846BDE8F08F620700D4062709F183
:103E8000070222F0070CFCE80223E14603F0004899
:103E90005FEA080C02D00FF2702C0DE05FEA045CC0
:103EA00002D50FF2682C07E05FEAC47C02D00FF263
:103EB000602C01E0AFF2700C4FF0FF3823F00043AC
:103EC000CDF850C065280CD006DC452809D046281E
:103ED0001DD047283DD13DE0662818D067287ED107
:103EE00038E00021112F01DB112000E0781CCDE922
:103EF000000106A90EA8FFF7EDFCDDE90F010E9AFF
:103F000003910021009207F1010A04914DE04FF066
:103F100000400097CDE9011006A90EA8FFF7DAFCD2
:103F2000DDE90F0203920E9B11990022DDF80CA02F
:103F30000093049211B9791C00EB010AB7EB0A0057
:103F400004D4C0F1FF3007F1010A0490AAEB070086
:103F5000019044E0012F00DA01270021112F01DD3B
:103F6000112000E03846CDE9000106A90EA8FFF7B0
:103F7000B1FCDDE90F010E9A03910021049100923A
:103F8000BA4621070CD40399514500DA8A46BAF1A2
:103F9000010F05DD009AAAF10101515C302908D01A
:103FA000B84202DA10F1040F06DA0121CDE901105E
:103FB00015E0AAF10101E9E7002805DC04990144B4
:103FC0000491AAEB000102E0411C514500DD8A4644
:103FD0000499401A401C01904FF0004002902007C5
:103FE00004D40198504501DBCDF8048000208DF801
:103FF0004F0002980DF14F07B0F1004F25D02B2054
:104000000E9002984FF0020800280CDA404202900D
:104010002D200E9007E00A210298FFF74FF930316A
:10402000029007F8011DB8F10001A8F10108F2DCC7
:1040300002980028EFD1791E0E980870307800F0B1
:10404000200040F0450007F8020D12A8C01B00F147
:1040500007081498007800B1012000EB0A010198CC
:1040600001EBE07105984144401A401E0590E003C1
:1040700006D45B462146179A059800F05DF8054482
:104080001498007818B15A46179990476D1CE003B0
:1040900024D55B462146179A059800F04DF8054453
:1040A0001CE00498002807DBDDE90301884203DDFA
:1040B0000098405C179901E0179930205A469047C4
:1040C000049805F10105401C04900198401E0190E0
:1040D00004D12E205A46179990476D1CBAF1000161
:1040E000AAF1010ADDDC05E017F8010B5A46179921
:1040F00090476D1CB8F10001A8F10108F4DC5B46A3
:104100002146179A0598ABE62D0000002B00000011
:10411000200000002DE9F041044600251E46174608
:10412000880404D405E039462020B0476D1C641E85
:10413000F9D52846BDE8F0812DE9F0410446002577
:104140001E469046C80301D5302700E0202788048A
:1041500004D505E041463846B0476D1C641EF9D5CC
:104160002846BDE8F0810A68531C0B601070704748
:104170000000000000000000002F00000000070009
:10418000070000147F147F1400242A7F2A12006283
:10419000640813230036495522500000050300002F
:1041A00000001C224100000041221C000014083EB7
:1041B00008140008083E0808000000A0600000087D
:1041C00008080808000060600000002010080402D1
:1041D000003E5149453E0000427F4000004261518F
:1041E0004946002141454B31001814127F10002729
:1041F00045454539003C4A494930000171090503EC
:1042000000364949493600064949291E000036361C
:10421000000000005636000000081422410000147F
:10422000141414140000412214080002015109065C
:1042300000324959513E007C1211127C007F4949DD
:104240004936003E41414122007F4141221C007F0E
:1042500049494941007F09090901003E4149497A1C
:10426000007F0808087F0000417F41000020404196
:104270003F01007F08142241007F40404040007F02
:10428000020C027F007F0408107F003E4141413E46
:10429000007F09090906003E4151215E007F09198E
:1042A00029460046494949310001017F0101003F8B
:1042B0004040403F001F2040201F003F4038403F0B
:1042C000006314081463000708700807006151496F
:1042D000454300007F41410000552A552A55000002
:1042E00041417F0000040201020400404040404080
:1042F000000001020400002054545478007F484418
:10430000443800384444442000384444487F00384E
:104310005454541800087E0901020018A4A4A47C77
:10432000007F080404780000447D40000040808441
:104330007D00007F102844000000417F4000007C89
:1043400004180478007C0804047800384444443895
:1043500000FC242424180018242418FC007C0804E1
:10436000040800485454542000043F444020003CBA
:104370004040207C001C2040201C003C4030403C41
:10438000004428102844001CA0A0A07C00446454D1
:104390004C44141414141414000000000000000015
:1043A000000000000000FC0000000000020000000F
:1043B000000C020C020000000000000090D0BCD0F5
:1043C000BC900003000300001824FE448C0003028C
:1043D000070201001824D8B04C800003000102013C
:1043E000C038E438E00001020201020208060000C1
:1043F0000000000000000000000000F804020000BF
:1044000000010204000204F80000000402010000A0
:104410009060F86090000000010000002020FC2067
:10442000200000000100000000000000000008065D
:1044300000000000202020202000000000000000DC
:104440000000000000000002000000000080601C6E
:104450000200040300000000F8040404F800010254
:10446000020201000008FC0000000002030200003C
:1044700018844424180003020202020008042424C1
:10448000D80001020202010040B088FC8000000058
:10449000000302003C242424C400010202020100A3
:1044A000F824242CC0000102020201000C04E41CC8
:1044B0000400000003000000D8242424D8000102D6
:1044C0000202010038444444F800000302020100E3
:1044D00000001000000000000200000000002000AA
:1044E00000000000060000000020508804020000C8
:1044F00000000102909090909000000000000000E9
:104500000002048850200002010000001804C424A6
:104510001800000002000000F804E494F800010212
:104520000202020000E09CF080000203000003028F
:1045300004FC2424D800020302020100F80404044D
:104540000C0001020202010004FC0404F800020352
:104550000202010004FC24740C00020302020300A6
:1045600004FC24740C00020302000000F008044460
:10457000CC4000010202010004FC2020FC040203E4
:10458000000003020404FC0404000202030202000F
:10459000000404FC040406040403000004FC24D00A
:1045A0000C0402030200030204FC040000000203E6
:1045B00002020203FC3CC03CFC00030003000300B9
:1045C00004FC30C4FC04020302000300F8040404E9
:1045D000F80001020202010004FC24241800020376
:1045E00002000000F8848404F800010202070500BC
:1045F00004FC2464980002030200030218242444EB
:104600008C000302020201000C04FC040C000002F6
:104610000302000004FC0000FC040001020201008F
:10462000047C80E01C040000030000001CE03CE06F
:104630001C00000300030000049C609C04000203B3
:1046400000030200041CE01C04000002030200003E
:104650000C84641C04000203020203000000FE023A
:104660000200000007040400000E30C0000000003B
:1046700000010200000202FE000000040407000026
:104680000004020400000000000000000000000020
:1046900000000808080808080000020000000000E8
:1046A000000000000040A0A0C000000102020302C0
:1046B00004FC2020C00000030202010000C02020F2
:1046C000600000010202020000C02024FC00000182
:1046D0000202030200C0A0A0C0000001020202000A
:1046E0000020F82424040002030202000040A0A0DD
:1046F000602000070A0A0A0404FC2020C00002030C
:10470000020003020020E400000000020302000097
:10471000000020E4000008080807000004FC80E016
:1047200020200203020003020404FC000000020235
:1047300003020200E020E020C000030003000300A9
:1047400020E02020C00002030200030200C020205D
:10475000C00000010202010020E02020C000080F7C
:104760000A02010000C02020E0000001020A0F0838
:1047700020E0402020000203020000000060A0A012
:1047800020000002020203000020F82000000000C8
:104790000102020020E00020E0000001020203020A
:1047A00020E0208060200000030100006080E080A5
:1047B000600000030003000020608060200002030E
:1047C0000003020020E020806020080807010000AC
:1047D0000020A0602000000203020200000020DE92
:1047E0000200000000070400000000FF00000000BD
:1047F000000F00000002DE2000000004070000009F
:104800000201020404020000000000000000000099
:10481000000000000000000000000000000000F8A0
:1048200000000000000000333000000000100C0603
:10483000100C0600000000000000000040C078409E
:10484000C0784000043F04043F040400007088FC6A
:1048500008300000001820FF211E0000F008F000C2
:10486000E018000000211C031E211E0000F0088833
:10487000700000001E2123241927211010160E009D
:10488000000000000000000000000000000000E048
:10489000180402000000000718204000000204185D
:1048A000E00000000040201807000000404080F0B9
:1048B000804040000202010F01020200000000F0EF
:1048C000000000000101011F0101010000000000C3
:1048D0000000000080B07000000000000000000038
:1048E00000000000000101010101010100000000C1
:1048F0000000000000303000000000000000000058
:1049000080601804006018060100000000E0100834
:104910000810E000000F102020100F00001010F809
:10492000000000000020203F202000000070080848
:1049300008887000003028242221300000300888C8
:10494000884830000018202020110E000000C020F0
:1049500010F8000000070424243F240000F8088811
:10496000880808000019212020110E0000E010889E
:1049700088180000000F112020110E0000380808D0
:10498000C83808000000003F0000000000708808E0
:1049900008887000001C222121221C0000E0100861
:1049A0000810E0000000312222110F00000000C0BA
:1049B000C000000000000030300000000000008057
:1049C0000000000000008060000000000000804047
:1049D0002010080000010204081020004040404060
:1049E00040404000040404040404040000081020B3
:1049F00040800000002010080402010000704808F8
:104A00000808F0000000003036010000C030C8285F
:104A1000E810E0000718272423140B000000C0381A
:104A2000E0000000203C23020227382008F8888894
:104A300088700000203F202020110E00C0300808A0
:104A400008083800071820202010080008F8080877
:104A50000810E000203F202020100F0008F8888870
:104A6000E8081000203F20202320180008F888883C
:104A7000E8081000203F200003000000C0300808B4
:104A80000838000007182020221E020008F808003D
:104A90000008F808203F210101213F20000808F804
:104AA000080800000020203F202000000000080827
:104AB000F8080800C08080807F00000008F888C0E7
:104AC00028180800203F20012638200008F8080098
:104AD00000000000203F20202020300008F8F800CF
:104AE000F8F80800203F003F003F200008F830C0E1
:104AF0000008F808203F200007183F00E0100808D1
:104B00000810E0000F10202020100F0008F80808FF
:104B10000808F000203F210101010000E010080812
:104B20000810E0000F18242438504F0008F8888837
:104B300088887000203F2000030C30200070880817
:104B4000080838000038202121221C00180808F825
:104B5000080818000000203F2000000008F80800A6
:104B60000008F808001F202020201F000878880077
:104B700000C83808000007380E010000F80800F8E7
:104B80000008F800033C0700073C03000818688091
:104B90008068180820302C03032C30200838C80007
:104BA000C83808000000203F200000001008080856
:104BB000C83808002038262120201800000000FEF8
:104BC000020202000000007F40404000000C30C0A4
:104BD00000000000000000010638C00000020202D0
:104BE000FE000000004040407F0000000000040282
:104BF00002020400000000000000000000000000AD
:104C0000000000008080808080808080000202049C
:104C10000000000000000000000000000000808094
:104C2000808000000019242222223F2008F8008002
:104C300080000000003F112020110E0000000080C5
:104C400080800000000E1120202011000000008054
:104C50008088F800000E112020103F200000808086
:104C600080800000001F222222221300008080F09A
:104C7000888888180020203F2020000000008080C5
:104C800080808000006B94949493600008F800800A
:104C900080800000203F210000203F200080989865
:104CA000000000000020203F2020000000000080C5
:104CB0009898000000C08080807F000008F8000005
:104CC00080808000203F24022D302000000808F85A
:104CD000000000000020203F202000008080808015
:104CE00080808000203F20003F20003F80800080A7
:104CF00080800000203F210000203F2000008080B5
:104D000080800000001F202020201F008080008065
:104D10008000000080FFA12020110E000000008014
:104D200080808000000E112020A0FF808080800005
:104D30008080800020203F21200001000000808032
:104D4000808080000033242424241900008080E027
:104D5000808000000000001F2020000080800000F4
:104D600000808000001F202020103F2080808000D5
:104D70000080808000010E300806010080800080E5
:104D8000008080800F300C030C300F00008080000A
:104D9000808080000020312E0E3120008080800035
:104DA0000080808080818E701806010000808080E5
:104DB000808080000021302C222130000000000083
:104DC000807C020200000000003F40400000000024
:104DD000FF00000000000000FF0000000002027C55
:104DE000800000000040403F00000000000601017C
:104DF00002020404000000000000000000000000A7
:104E000000000000000000000000000000000000A2
:104E10000000000000000000000000000000000092
:104E20000000000000F0F0F00000000000000000B2
:104E300000017F010000000000000000001C1C1C9D
:104E40000000000000008060301C8C60301C0C00F2
:104E50000000000000000000000000000000000052
:104E60000000000000000000000000E00000000062
:104E700000E000000086E69F86868686E69F860024
:104E800000011F01010101011F010100000080C09C
:104E90006020F820E0C00000000003070C18FF703D
:104EA000E18100000000070F10107F100F070000C5
:104EB0008060206080000000E02000000F30203083
:104EC0009F70DC371030C0000000100E0300071880
:104ED000101807000000C02020E0C0000000000003
:104EE00080E01F38E88703C43C040000070F181057
:104EF000100B070D1010080000808C4C38000000CB
:104F000000000000000000000000000000000000A1
:104F10000000000000000000000000000000000091
:104F2000000080E0300804000000000000FEFF01E7
:104F300000000000000000000000030F18204000E7
:104F400000040830E08000000000000000000000C5
:104F500001FFFE0000000000004020180F030000C9
:104F600000000000000000000000C0000000000081
:104F7000004266663C18FF183C666642000000006E
:104F8000000003000000000000000000000080009E
:104F900000000000001010101010FF101010101072
:104FA00000000000000003000000000000000000FE
:104FB00000000000000000000000000000000000F1
:104FC0000000000000808C4C380000000000000051
:104FD00000000000000000000000000000101010A1
:104FE0001010101010101000000000000000000051
:104FF00000000000000000000000000000000000B1
:1050000000000000000000000000000000001C1C68
:105010001C00000000000000000000000000000074
:10502000E0380C000000000080701C03000000004D
:105030000060380E0100000000000000000080C089
:1050400060202060C080000000FEFF010000000022
:1050500001FFFE000001070E181010180E070100D6
:105060000000808080C0E000000000000000000020
:1050700000FFFF000000000000001010101F1F10B4
:10508000101000000080402020202060C080000020
:1050900000030300804020381F070000001C1A197D
:1050A00018181818181F00000080C020202060C0A9
:1050B00080000000000303001010182FE78000009C
:1050C00000070F10101010180F070000000000005C
:1050D0000000C0E0F000000000C0B088868180FFC2
:1050E000FF808000000000000010101F1F10100043
:1050F0000000E060606060606060000000003F10E1
:1051000008080818F0E0000000070B101010101C31
:105110000F030000000080C040202020E0C00000FD
:1051200000FCFF211008080818F0E0000001070C3F
:1051300018101010080F03000000C0E060606060ED
:1051400060E06000000003000000E01807000000BD
:1051500000000000001F1F00000000000080C06071
:105160002020202060C080000087EF2C18183030ED
:1051700068CF830000070F0810101010180F0700E9
:105180000000C0C020202020C0800000001F3F6021
:105190004040402010FFFE0000000C1C10101008C2
:1051A0000F030000000000000000000000000000ED
:1051B00000000000000E0E0E0000000000000000C5
:1051C000001C1C1C0000000000000000000000008B
:1051D0000000000000000000000C0C0000000000B7
:1051E000000000000058380000000000000000002F
:1051F00000000080402010000000102844820100C0
:10520000000000000000000000000102040810007F
:105210000000000000000000000000000084848402
:1052200084848484848484000000000000000000E2
:10523000000000000000102040800000000000007E
:105240000000000000000182442810000000100847
:10525000040201000000000000C020201010101007
:1052600030E0C0000003030000F010080C0703004A
:10527000000000001C1C1C0000000000000000C01A
:10528000406020202040C00000FCFF01F00E03C160
:10529000FE03807F0001070E08111110110904029E
:1052A0000000000080E0E000000000000000807CC2
:1052B0004340477FF880000010181F1000000000D6
:1052C000131F1C1020E0E02020202060C080000080
:1052D00000FFFF10101010182FE78000101F1F1084
:1052E00010101010180F0700000080C04020202070
:1052F0002060E00000FCFF01000000000000010051
:105300000001070E181010100804030020E0E02030
:1053100020202040C080000000FFFF0000000000AF
:1053200001FFFE00101F1F10101018080E070100CB
:1053300020E0E020202020202060800000FFFF10DF
:105340001010107C00000000101F1F101010101013
:105350001018060020E0E02020202020606080005F
:1053600000FFFF101010107C00000100101F1F1024
:105370000000000000000000000080C0602020202D
:1053800040E0000000FCFF0100004040C0C1404080
:105390000001070E181010100F0F000020E0E02091
:1053A0000000000020E0E02000FFFF1010101010AF
:1053B00010FFFF00101F1F1000000000101F1F1023
:1053C0000000202020E0E02020200000000000005D
:1053D00000FFFF000000000000001010101F1F1051
:1053E0001010000000000000202020E0E02020201D
:1053F00000000000000000FFFF0000000060E080EF
:105400008080C07F3F00000020E0E020000020A05E
:105410006020200000FFFF30187CE3C00000000087
:10542000101F1F10000001131F1C181020E0E020A7
:10543000000000000000000000FFFF00000000006E
:1054400000000000101F1F10101010101018060090
:1054500020E0E0E000000000E0E0E02000FF013F8D
:10546000FEC0E01E01FFFF00101F1000031F03001D
:10547000101F1F1020E0E0C0000000000020E0200E
:1054800000FF0003071C78E08000FF00101F1000E1
:1054900000000000030F1F00000080C0602020609B
:1054A000C080000000FEFF010000000000FFFE00C1
:1054B0000001070E181010180C07010020E0E02072
:1054C0002020202060C0800000FFFF20202020201E
:1054D000301F0F00101F1F10000000000000000010
:1054E000000080C060202060C080000000FEFF013E
:1054F0000000000000FFFE000001070E1111133C28
:105500007C67210020E0E0202020202060C0800077
:1055100000FFFF101030F0D0080F0700101F1F1001
:10552000000000030F1C10100080C060202020200D
:105530004040E00000070F0C1818303060E0810098
:10554000001F0C0810101010180F0700806020209A
:1055500020E0E020202060800100000000FFFF002C
:105560000000000100000000101F1F1000000000DC
:1055700020E0E020000000000020E02000FFFF000D
:10558000000000000000FF0000070F1810101010AE
:10559000100807002060E0E02000000020E060200C
:1055A0000000077FF88000807C03000000000000FE
:1055B000071F1C070000000020E0E02000E0E020C2
:1055C0000020E0200007FFF8E01FFFFCE01F0000C4
:1055D0000000031F0300011F03000000002060E023
:1055E000A0000020E0602000000000038F7CF8C6CF
:1055F000010000000010181E130001171F181000F2
:105600002060E0E02000000020E0602000000107B2
:105610003EF8E0180700000000000010101F1F10E7
:105620001000000000806020202020A0E0E020008A
:1056300000000000C0F03E0F0300000000101C1F1F
:1056400017101010101806000000000000FC0404E1
:10565000040404000000000000FF0000000000003F
:1056600000000000007F404040404000000010E08B
:10567000000000000000000000000000031C60802B
:105680000000000000000000000000030C7080001B
:1056900000000404040404FC0000000000000000FA
:1056A000000000FF00000000000040404040407F3C
:1056B0000000000000000010080C040C081000009E
:1056C00000000000000000000000000000000000DA
:1056D00000000000000000000000000000000000CA
:1056E00000000000000000000000000000000000BA
:1056F00080808080808080808080808000000004A6
:105700000408080000000000000000000000000085
:105710000000000000000000000000000000000089
:10572000000000000000000000000000000098D809
:1057300044642424FCF80000000F1F181010100807
:105740001F1F10180020E0F0000000000000000003
:105750000000FFFF180804040CF8F00000001F0F01
:1057600018101010180F03000000000000000000C7
:105770000000000000E0F8180404043C38000000B9
:1057800000030F0C101010100806000000000000AD
:1057900000000020E0F0000000E0F81C0404040811
:1057A000FFFF000000030F18101010081F0F080063
:1057B0000000000000000000000000000000E0F811
:1057C000484444444C7870000000030F0C1810103B
:1057D000100804000000000080C0602020E0C0002D
:1057E00000040404FFFF040404040000000010107F
:1057F0001F1F10101000000000000000000000003B
:1058000000000000000070F88C04048CF874040C94
:10581000007076CF8D8D8D89C87870000020E0F003
:1058200000000000000000000000FFFF0804040466
:10583000FCF8000000101F1F100000101F1F1000B8
:105840000000000000606000000000000000040490
:1058500004FCFC000000000000001010101F1F10CE
:105860001010000000000000000000606000000058
:1058700000000000040404FCFC0000000000C0C0A4
:105880008080C07F3F0000000020E0F000000000AA
:10589000000000000000FFFF80C0F41C04040000B2
:1058A00000101F1F1100031F1C10100000002020FB
:1058B00020E0F000000000000000000000FFFF00FA
:1058C0000000000000001010101F1F10101000003A
:1058D00000000000000000000000000004FCFC08C4
:1058E00004FCFC0804FCFC00101F1F10001F1F100C
:1058F000001F1F100000000000000000000000005A
:105900000004FCFC08080404FCF8000000101F1F41
:10591000100000101F1F1000000000000000000019
:105920000000000000E0F0180C04040C18F0E00087
:1059300000030F0C101010100C0F030000000000EB
:1059400000000000000000000004FCFC0804040447
:105950000CF8F0000080FFFF889010101C0F03006F
:1059600000000000000000000000000000E0F81C43
:1059700004040408F8FC000000030F1810109088BD
:10598000FFFF800000000000000000000000000099
:10599000040404FCFC100804040C0C001010101F7C
:1059A0001F101010000000000000000000000000A8
:1059B0000000000000003078CCC48484840C1C00FB
:1059C00000001E1810101011190F06000000000032
:1059D00000C000000000000000040404FFFF0404F5
:1059E00004000000000000000F1F1010100C000049
:1059F0000000000000000000000000000004FCFEA9
:105A000000000004FCFE000000000F1F181010082A
:105A10001F0F080000000000000000000000000050
:105A200000040C3CFCC40000C43C0C04000000005A
:105A3000010F1E0E01000000000000000000000029
:105A400000000000043CFCC400E47CFC84807C0476
:105A50000000071F070000071F07000000000000EC
:105A600000000000000000000004041C7CE4C034BE
:105A70001C0404000010101C1601131F1C18100039
:105A800000000000000000000000000000040C3CCA
:105A9000FCC400C43C0404000000C080C1370E01F7
:105AA00000000000000000000000000000000000F6
:105AB00000001C0404C4F47C1C0400000000101C42
:105AC0001F17111010180E0000000000000000F851
:105AD0000C04000000000000001028EF000000008F
