:020000040800F2
:10000000B814002009010008FD190008FF190008B4
:10001000031A0008071A00080B1A00080000000065
:10002000000000000000000000000000111A00089D
:100030000F1A000800000000131A0008151A000823
:100040002301000823010008230100082301000800
:1000500023010008230100082301000823010008F0
:1000600023010008230100082301000823010008E0
:1000700023010008230100082301000823010008D0
:1000800023010008230100082301000823010008C0
:1000900023010008230100082301000823010008B0
:1000A00023010008230100082301000823010008A0
:1000B000171A0008230100088922000823010008FC
:1000C0002301000823010008230100082301000880
:1000D000230100084F1C00080B1E0008CF1F00085A
:1000E0002301000823010008230100085F22000803
:1000F00035220008DFF80CD002F074FB00480047FE
:10010000DD160008B814002006488047064800475E
:10011000FEE7FEE7FEE7FEE7FEE7FEE7FEE7FEE7B7
:10012000FEE7FEE7AB180008F5000008324901437E
:10013000324A1160704770B5002100230F22C47845
:100140001CB32E4C246804F4E064C4F5E064C4F3EA
:100150000721C1F10404E3B20A4144789C40E1B2B2
:100160008478144021430C07210E254C05786155F5
:10017000047804F01F050124AC4005786D11AD0032
:1001800005F1E025C5F8004109E0047804F01F05F9
:100190000124AC401B4D0678761145F8264070BD11
:1001A000194A0A400243154B1B1F1A60704739B1A8
:1001B000124A121D12680243104B1B1D1A6006E002
:1001C0000E4A121D126882430C4B1B1D1A607047A9
:1001D000042808D14FF0E021096941F004014FF0F3
:1001E000E022116107E04FF0E021096921F00401EC
:1001F0004FF0E022116170470000FA050CED00E0BD
:1002000000E400E080E100E080FFFF1F10B504463D
:100210008548844208D10121084600F0BCFA00213B
:10022000012000F0B8FA52E08048844208D1012150
:10023000022000F0B0FA0021022000F0ACFA46E003
:100240007B48844208D10121042000F0A4FA002157
:10025000042000F0A0FA3AE07648844208D1012157
:10026000082000F098FA0021082000F094FA2EE00F
:100270007148844208D10121102000F08CFA00213D
:10028000102000F088FA22E06C48844208D1012155
:10029000402000F080FA0021402000F07CFA16E0B7
:1002A0006748844208D10121802000F074FA0021BF
:1002B000802000F070FA0AE06248844207D10121F0
:1002C000202000F068FA0021202000F064FA10BD20
:1002D000F0B50A4600210023002400BF3DE00125BF
:1002E00005FA01F3156805EA03049C4234D1056858
:1002F0004F000326BE40B543056015794E00B5405A
:100300000668354305601579012D02D01579022D57
:1003100016D185684F000326BE40B54385605579E8
:100320004E00B540866835438560858801268E403D
:10033000B5438580858896798E40B6B235438580F1
:10034000C5684F000326BE40B543C560D5794E0051
:10035000B540C6683543C560491C1029BFD3F0BD00
:100360004FF6FF7101600021017141718171C1710E
:10037000704708B54FF480320092009A0A43009209
:10038000009AC261C161009AC261C2690092C269E9
:10039000009208BD02460020138A0B400BB10120D9
:1003A00000E0002070470146088A7047024600209E
:1003B000938A0B400BB1012000E0002070470146FA
:1003C000888A704701837047418370470AB101836F
:1003D00000E04183704781827047828A4A4082826E
:1003E0007047F0B5002300244D07ED0E02FA05F327
:1003F000CE1000F1200555F826504E07F70E0F26B7
:10040000BE40B543CF1000F1200646F82750CE106D
:1004100000F1200555F8265045EA0304CE1000F1FE
:10042000200545F82640F0BD0000024000040240CF
:1004300000080240000C0240001002400018024078
:10044000001C024000140240F948006840F480702B
:10045000F7490860F64808300068F6490840F44952
:1004600008310860F2480068F3490840F049086024
:100470000846006820F480200860ED4808300068D5
:1004800020F47D00EA49083108600020091D086059
:1004900070470021E64A921C11701146087070479F
:1004A00010B501460022002300204A11012A02D182
:1004B000DF4C236802E0DE4C3434236801F01F0275
:1004C000012494401C400CB1012000E0002010BD2C
:1004D00038B5002000900024002500BF3120FFF730
:1004E000DFFF05460098401C00900098B0F5A06F13
:1004F00001D0002DF2D03120FFF7D2FF08B1012446
:1005000000E00024204638BDC949C91D0870704765
:1005100001460020C64A121D106820F460400843BE
:1005200010607047C5490862704701460020C04A04
:10053000121D106820F4F85040EA01201060704746
:10054000BE49086070470021B94A35321170114622
:1005500008707047BA490860704710B541EA020355
:100560000343B34C0A34237010BDB4490866704786
:10057000B24908677047B2492C310860704740EAB9
:100580000102AB4B0B331A70704701460020A84A9A
:100590000832106820F00300084310607047A44838
:1005A0000830006800F00C00704701460020A04AA7
:1005B0000832106820F0F0000843106070470146D0
:1005C00000209B4A0832106820F4E0600843106065
:1005D000704701460020964A0832106820F46050A7
:1005E00040EAC10010607047F0B5002100220023EE
:1005F0000026002400258E4F08373F6807F00C01C5
:1006000031B1042912D0082913D00C2937D113E0B5
:10061000874F3F1D3F68C7F342356F1C4FF0010CF9
:100620000CFA07FC4FEACC37076036E0854F0760CD
:1006300033E0854F076030E07D4F08373F6807F4AF
:1006400070127B4F08373F6807F440037F4F07EB7A
:1006500092473A78012707EB9353754F08373F6865
:1006600007F480362EB9774F5743B7FBF3F707608F
:1006700004E0754F5743B7FBF3F707600DE06C4F8D
:100680003F1D3F68C7F342356F1C4FF0010C0CFA59
:1006900007FC4FEACC37076000BF00BF644F083744
:1006A0003F6807F0F0010909694F7C5C0768E74083
:1006B00047605F4F08373F6807F4E061090A644FFD
:1006C0007C5C4768E7408760594F08373F6807F40C
:1006D0006051C90A5E4F7C5C4768E740C760F0BD67
:1006E000002100F44032B2F5403F08D1504A116871
:1006F00021F0C04100F0C04211434D4A11604C4A04
:100700003432126822F44032494B34331A601A46AC
:10071000126800F440331A43454B34331A60704773
:10072000474958310860704745495C310860704757
:1007300039B13F4A1C32126802433D4B1C331A60E8
:1007400006E03B4A1C3212688243394B1C331A6064
:10075000704739B1364A203212680243344B203395
:100760001A6006E0324A203212688243304B20334E
:100770001A60704739B12E4A2432126802432C4B5A
:1007800024331A6006E02A4A243212688243284B36
:1007900024331A60704739B1254A10321268024377
:1007A000234B10331A6006E0214A1032126882434C
:1007B0001F4B10331A60704739B11D4A143212684A
:1007C00002431B4B14331A6006E0194A14321268B4
:1007D0008243174B14331A60704739B1144A1832E8
:1007E00012680243124B18331A6006E0104A18329E
:1007F000126882430E4B18331A60704739B10C4AA5
:100800002832126802430A4B28331A6006E0084A6D
:10081000283212688243064B28331A607047C9B1E8
:10082000034A2C3212680243014B2C331A6016E043
:10083000003802400CC0FF88FEFFFEEE0000474279
:10084000800647420024F40000127A0000000020D5
:10085000090000201F4A126882431E4B1A6070472D
:1008600039B11C4A121D126802431A4B1B1D1A6033
:1008700006E0184A121D12688243164B1B1D1A60AF
:10088000704739B1134A1F3A12780243114B1F3B8C
:100890001A7006E00F4A1F3A127882430D4B1F3B35
:1008A0001A7070470B480830006840F080700949A2
:1008B00008310860704701460020064A203A126855
:1008C0000A400AB1012000E00020704701491E39AA
:1008D000087070472C38024010B50446B4F1804FC0
:1008E00008D101210846FFF778FF00210120FFF71A
:1008F00074FF5EE0FB48844208D101210220FFF72B
:100900006CFF00210220FFF768FF52E0F6488442A6
:1009100008D101210420FFF760FF00210420FFF728
:100920005CFF46E0F148844208D101210820FFF72E
:1009300054FF00210820FFF750FF3AE0EC488442C2
:1009400008D101211020FFF748FF00211020FFF7F8
:1009500044FF2EE0E748844208D101212020FFF720
:100960003CFF00212020FFF738FF22E0E2488442CC
:1009700008D101210420FFF71FFF00210420FFF709
:100980001BFF16E0DD48844208D101210820FFF753
:1009900013FF00210820FFF70FFF0AE0D848844228
:1009A00007D101211020FFF707FF00211020FFF7DA
:1009B00003FF10BD00220288B0F1804F08D0C94B60
:1009C000984205D0C84B984202D0C84B984204D1F7
:1009D0004FF68F731A404B881A43C54B984207D085
:1009E000C44B984204D04FF6FF431A400B891A4378
:1009F00002804B68C3620B880385012383827047A2
:100A00004FF0FF314160002101800181418070473A
:100A10000185828270470A46002101884FF68F7354
:100A2000194011430180704741627047C1627047AD
:100A30000146486A70470146088D704721B1028817
:100A400042F00202028004E002884FF6FD731A4071
:100A50000280704721B1028842F00402028004E063
:100A600002884FF6FB731A400280704721B102885A
:100A700042F08002028004E002884FF67F731A4041
:100A80000280704702884FF6F7731A40028002888E
:100A90000A430280704702884FF6FF431A400280E3
:100AA00002880A430280704721B1028842F00102A5
:100AB000028004E002884FF6FE731A4002807047FD
:100AC00030B500230022048C4FF6FE752C400484C0
:100AD000028C038B4FF68F742340AC1E23400C888E
:100AE00023436C1E22400C8922434C8822434C68CD
:100AF00044630383028430BD30B500230022048C9C
:100B00004FF6EF752C400484028C038B48F6FF747B
:100B100023400C884FF6FF7505EA042423434FF663
:100B2000DF7422400C8905EA041422434C8805EA4C
:100B3000041422434C6884630383028430BD30B5BF
:100B400000230022048C4FF6FF652C400484028CA5
:100B5000838B4FF68F7423400C8823434FF6FF544A
:100B600022400C894FF6FF7505EA042422434C8885
:100B700005EA042422434C68C4638383028430BDA5
:100B800030B500230022048C4EF6FF752C400484FF
:100B9000028C838B48F6FF7423400C884FF6FF7558
:100BA00005EA042423434DF6FF7422400C8905EA2C
:100BB000043422434C8805EA043422434C6804641C
:100BC0008383028430BD0021018041804160018126
:100BD000704770B5034600200024184618300125E0
:100BE0008D40ACB21D8CA5431D8409B1082909D1E3
:100BF00000EB6100056825F0700505600568154388
:100C000005600EE00D1FC5F34E052844056825F468
:100C1000E045056005684FF6FF7606EA0226354393
:100C2000056070BD4163704781637047C163704761
:100C3000016470470A460021018B4FF68F731940FB
:100C40001143018370470A460021018B48F6FF7368
:100C500019404FF6FF7303EA0223194301837047DB
:100C60000A460021818B4FF68F731940114381830F
:100C700070470A460021818B48F6FF7319404FF6F2
:100C8000FF7303EA02231943818370470A46002158
:100C9000018B4FF6F77319401143018370470A46E1
:100CA0000021018B4FF2FF7319404FF6FF7303EAE7
:100CB00002231943018370470A460021818B4FF6B6
:100CC000F77319401143818370470A460021818BD5
:100CD0004FF2FF7319404FF6FF7303EA02231943E3
:100CE000818370470004004000080040000C004071
:100CF000001000400014004000080140000C0140BA
:100D0000001001400A460021018B4FF6FB73194089
:100D10001143018370470A460021018B4FF6FF33D0
:100D200019404FF6FF7303EA02231943018370470A
:100D30000A460021818B4FF6FB73194011438183D2
:100D400070470A460021818B4FF6FF3319404FF65A
:100D5000FF7303EA02231943818370470A46002187
:100D6000018B4FF67F7319401143018370470A4688
:100D70000021018BC1F30E014FF6FF7303EA02233A
:100D80001943018370470A460021818B4FF67F7318
:100D900019401143818370470A460021818BC1F3BA
:100DA0000E014FF6FF7303EA022319438183704754
:100DB0000A460021018C4FF6FD731940114301844E
:100DC00070470A460021018C4FF6DF7319404FF639
:100DD000FF7303EA02131943018470470A46002196
:100DE000018C4FF6FF5319404FF6FF7303EA0223BD
:100DF0001943018470470A460021018C4DF6FF73A8
:100E000019404FF6FF7303EA023319430184704718
:100E100002894FF6F7731A40028102890A43028160
:100E2000704730B5002301248C40A3B2048C9C434E
:100E30000484048C02FA01F5ADB22C43048430BD65
:100E4000828B4FF2FF331A408283828B4FF6FF73FF
:100E500003EA01231A4382837047F0B50C46154616
:100E6000002100220026078C4EF6FF7C07EA0C07C3
:100E70000784818B028C4FF6FF7707EA043640F631
:100E8000FF4739404FF6FF7707EA052739434FF60A
:100E9000FF7707EA0337394345F6FF773A4046F4D0
:100EA00080573A4381830284F0BD828B4FF6F373FF
:100EB0001A408283828B0A4382837047F0B50C46C6
:100EC0001546002100220026078C4FF6FF6C07EA2A
:100ED0000C070784818B028C4FF6FF7707EA042604
:100EE0004FF60C7739404FF6FF7707EA03172F4389
:100EF00039434FF2FF573A4046F480773A438183B3
:100F00000284F0BD028B4FF2FF331A400283028B42
:100F10004FF6FF7303EA01231A4302837047F0B5CB
:100F20000C461546002100220026078C4FF6EF7C68
:100F300007EA0C070784018B028C4FF6FF7707EA5C
:100F4000041640F6FF4739404FF6FF7707EA0337AC
:100F500039434FF6FF7707EA052739434FF65F77A6
:100F60003A4046F010073A4301830284F0BD028BF9
:100F70004FF6F3731A400283028B0A4302837047D1
:100F8000F0B50C46154600210022068C4FF6FE7780
:100F90003E400684018B028C4FF60C7631407E1C5D
:100FA00006EA03162E4331434FF6F576324044F0FD
:100FB0000106324301830284F0BD70B505460C463C
:100FC000208850B92389A28861882846FFF7D8FF76
:100FD000E1882846FFF7CBFF25E0208804280AD1C6
:100FE0002389A28861882846FFF799FFE18828466F
:100FF000FFF788FF17E0208808280AD12389A288F4
:1010000061882846FFF75AFFE1882846FFF74DFF21
:1010100009E02389A28861882846FFF71EFFE1883E
:101020002846FFF70DFF70BD00210180418001219E
:1010300081800021C180018170472DE9F041054682
:101040000C4600260127608808B9022600E0002629
:10105000A088012801D1022700E001272088A0B93B
:101060002389A28861882846FFF78AFFE1882846FD
:10107000FFF77DFF23893A4631462846FFF74FFFA9
:10108000E1882846FFF73EFF13E02389A2886188A4
:101090002846FFF744FFE1882846FFF733FF2389FE
:1010A0003A4631462846FFF76BFFE1882846FFF7AE
:1010B0005EFFBDE8F0810146486B70470146886BD2
:1010C00070470146C86B70470146086C70471AB1FB
:1010D00083890B43838102E083898B43838170473B
:1010E0008182704702460020138A0B400BB1012019
:1010F00000E000207047CA430282704730B50246C4
:10110000002000230024158A05EA0103958905EAD9
:10111000010413B10CB1012000E0002030BDCA432E
:101120000282704741EA0203A0F8483070471AB1C2
:1011300083890B43838102E083898B4383817047DA
:1011400021B1828842F00802828004E082884FF652
:10115000F7731A408280704701894FF6F872114088
:10116000018170470A46002101894FF68F731940AB
:1011700011430181704730B504460D46294620468B
:10118000FFF7F0FF208940F00700208130BD2DE9F6
:10119000F04104460D4616461F46602D06D13B46DB
:1011A000012231462046FFF7BAFE05E03B46012208
:1011B00031462046FFF7E4FE29462046FFF7D2FFDE
:1011C000208940F007002081BDE8F08130B50C4651
:1011D00000210189C9B24FF6FF7505EA03251543C1
:1011E00025432943018130BD2DE9F04105460E46D6
:1011F00017469846002443463A4631462846FFF7AC
:10120000E5FF2C894FF6F870044044F007044FF6D0
:101210008F70044044F070042C81BDE8F081F0B57B
:1012200004460D4616461F463B4632462946204692
:10123000FFF7CCFF208940F480402081F0BD8288F8
:101240004FF68F731A40828082880A4382807047EB
:1012500002894FF6F8731A40028102890A4302811B
:10126000704702894FF67F731A40028102890A4350
:1012700002817047F0B50C4615461E46002100223B
:1012800000230189028B038C4FF6F8773940214304
:101290004FF6FC473A4040F201173A434FF6DD77EC
:1012A0003B404FF6FF7707EA06172F433B43018188
:1012B00002830384F0BD21B1828842F080028280E3
:1012C00004E082884FF67F731A408280704730F8BE
:1012D000502F02EA1142028002888BB21A4320F892
:1012E0005029704710B50446F748844209D10121BE
:1012F0008803FFF761FA00214FF48040FFF75CFAA2
:1013000032E0F248844209D101214804FFF765FA2E
:1013100000214FF40030FFF760FA25E0EC488442EA
:1013200009D101218804FFF758FA00214FF48020E9
:10133000FFF753FA18E0E748844209D10121C804B5
:10134000FFF74BFA00214FF40020FFF746FA0BE0BD
:10135000E148844208D101210805FFF73EFA002147
:101360004FF48010FFF739FA10BD2DE9FF4705460D
:101370000E460024A14600BFA046B08900B100BFC0
:101380002C8A24F44054F08804432C82AC8941F226
:101390000C608443B0883189084371890843044351
:1013A000AC81AC8A24F44074B0890443AC826846B2
:1013B000FFF71AF9C448854202D1DDF80C9001E02C
:1013C000DDF80890A88900F4004040B109EBC9009D
:1013D00000EB091031684900B0FBF1F707E009EBB9
:1013E000C90000EB091031688900B0FBF1F76420F7
:1013F000B7FBF0F004012009642101FB1078A889F3
:1014000000F4004040B1322000EBC800B0FBF1F026
:1014100000F00700044308E0322000EB08106421CC
:10142000B0FBF1F000F00F0004432C81BDE8FF8712
:101430004FF41651016000218180C18001810C218F
:10144000418100218181704710B502460020108A39
:1014500020F470600B884C8823438C882343CC880D
:1014600023431843108210BD0021018041808180F8
:10147000C180704721B1828942F40052828104E028
:1014800082894DF6FF731A4082817047028B02F405
:101490007F420283028B0A430283704721B1828913
:1014A00042F40042828103E08289C2F30E0282810B
:1014B000704721B1828A42F40062828204E0828A0B
:1014C0004FF2FF731A4082827047C1F30802828094
:1014D000704701468888C0F308007047028A4FF6BB
:1014E000F0731A400282028A0A430282704721B1D5
:1014F000828942F00202828104E082894FF6FD7304
:101500001A408281704782894FF2FF731A408281AC
:1015100082890A4382817047028A4FF6DF731A403C
:101520000282028A0A430282704721B1028A42F48F
:101530008042028204E0028A4BF6FF731A40028264
:101540007047818941F001018181704721B1828A10
:1015500042F00802828204E0828A4FF6F7731A4052
:1015600082827047028BD2B20283028B42EA01224E
:101570000283704721B1828A42F02002828204E015
:10158000828A4FF6DF731A408282704721B1828AC5
:1015900042F01002828204E0828A4FF6EF731A4012
:1015A00082827047828A4FF6FB731A408282828A57
:1015B0000A438282704721B1828A42F0020282820B
:1015C00004E0828A4FF6FD731A40828270471AB196
:1015D000838A0B43838202E0838A8B438382704732
:1015E000F0B50346002400260025002040F66A17C7
:1015F000B94200D100BF1846C1F3421401F01F06E2
:10160000012707FA06F5012C01D10C3004E0022C69
:1016100001D1103000E014301AB107682F43076081
:1016200002E00768AF430760F0BD02460020B1F555
:10163000007F00D100BF13880B400BB1012000E0F8
:101640000020704701F40072B2F5007F00D100BFA6
:10165000CA430280704770B502460024002300256B
:10166000002040F66A16B14200D100BFC1F3421516
:1016700001F01F03012606FA03F3012D02D196891A
:10168000334006E0022D02D1168A334001E0968AEB
:1016900033400C12012606FA04F41688344013B1C4
:1016A0000CB1012000E0002070BD10B50022002325
:1016B00040F66A14A14200D100BF0A1201249440EE
:1016C000A3B2DC43048010BD003801400044004058
:1016D00000480040004C004000500040002500241D
:1016E000202000F0B1F94FF4A060FEF71FFD00F0DC
:1016F000DBFC00F001FA4FF4165000F00FFC012162
:101700002048FFF7B7FE00F01FFD0021084600F05B
:1017100036FD35E000F003FD20B10D221AA1194875
:1017200000F0D4FB4FF400711B48FEF74BFE4FF462
:101730007A7000F0C1F94FF400711748FEF744FECB
:101740004FF47A7000F0B8F91448008800F40040B3
:10175000B0B112480578002405E01148005D114938
:101760000855601CC4B2AC42F7DB0A200D4948554D
:101770004FF41672034800F0A9FB002007490880C7
:10178000C8E700000048004068656C6C6F5F6E6FD2
:101790006465310D0A00000000040240460000208C
:1017A000AC0900205C0E00200CB5002001900090D8
:1017B0008748006840F480308549086000BF84484D
:1017C000006800F4003000900198401C01900098DF
:1017D00018B90198B0F5A06FF1D17D48006800F408
:1017E000003010B10120009001E00020009000982E
:1017F000012859D17748006840F004007549086015
:101800000846006840F0020008600846006840F0A2
:10181000010008606E482430006840F080506C4938
:1018200024310860C8146C49086000BF6A484068E9
:1018300000F010000028F9D16548083000686449BC
:1018400008310860084600680860084600680860BB
:101850000846006820F47D0008600846006840F4EF
:101860009A0008605A48006840F080705849086043
:1018700000BF5748006800F000700028F9D05448B5
:101880000830006820F0030051490831086008461C
:10189000006840F00300086000BF4D480830006851
:1018A00000F00C000C28F8D10CBD10B548480068B9
:1018B00040F4807046490860454808300068474950
:1018C00008404349083108604148006844490840DD
:1018D0003F4908600846006820F4802008603C48C2
:1018E0000830006820F47D00394908310860002084
:1018F000091D0860FFF758FF4FF000603949086084
:1019000010BD70B500220020002100240023304DBE
:1019100008352D6805F00C0232B1042A10D0082ACF
:1019200012D00C2A39D113E0294D2D1D2D68C5F395
:1019300042335D1C0126AE40F5032B4E356038E086
:101940002A4D294E356034E0294D274E356030E070
:101950001F4D08352D6805F470101D4D08352D6894
:1019600005F44001234D05EB90452878012505EB52
:101970009151174D08352D6805F4803434B91B4D4D
:101980004543B5FBF1F5184E356005E0184D45436C
:10199000B5FBF1F5144E35600BE00D4D2D1D2D6896
:1019A000C5F342335D1C0126AE40F5030E4E356093
:1019B00000BF00BF064D08352D68C5F303150E4E58
:1019C000725D094D2D68D540074E356070BD000031
:1019D00000380240003C0240007000400CC0FF880C
:1019E000FEFFFEEE08ED00E01C0000200024F400E5
:1019F00000127A002000002029000020704700BF5C
:101A0000FEE700BFFEE700BFFEE700BFFEE770474E
:101A100070477047704710B501218807FFF76EFBCC
:101A200070B101218807FFF77AFB06480078401C57
:101A30000449087008460078052801D10020087084
:101A400010BD00003A0000204FF0E021096921F0AC
:101A500004014FF0E0221161C21700EB5272C2F391
:101A6000C702234B1A701946097801EB4102C2EBF9
:101A7000C1114FF6FF7202EAC1011E4A1180704780
:101A800001461B4A12784A434FF0E0235A61002274
:101A90009A6101221A6100BF4FF0E022106900F044
:101AA00001021AB100F48032002AF5D000224FF072
:101AB000E0231A619A61704701460E4A12884A4330
:101AC0004FF0E0235A6100229A6101221A6100BF9F
:101AD0004FF0E022106900F001021AB100F48032E8
:101AE000002AF5D000224FF0E0231A619A61704776
:101AF0003E000020400000201CB501210220FEF71E
:101B000017FE01208DF8040000208DF8060001204A
:101B10008DF8070002208DF805000002009069464C
:101B20000B48FEF7D5FB4FF400710948FEF74AFC5D
:101B30001CBD10B54FF400710548FEF745FCC820E8
:101B4000FFF7BAFF4FF400710148FEF73BFC10BDF0
:101B5000000402402DE9F04107460D4616460024D8
:101B60000CE0295D3846FFF7B0FC00BF4021384645
:101B7000FFF75BFD0028F9D0601C84B2B442F0DBB3
:101B8000BDE8F08110B588B0044601218803FEF756
:101B9000E0FD01210846FEF7CBFD5748FFF7A2FB09
:101BA000072209215548FEF71CFC07220A21534849
:101BB000FEF717FC4FF4C060029002208DF80C0075
:101BC0008DF80D0000208DF80E0001208DF80F001B
:101BD00002A94A48FEF77CFB04940020ADF81400EB
:101BE000ADF81600ADF81800ADF81C000C20ADF8EB
:101BF0001A0004A94048FFF7B8FB01213E48FFF74F
:101C000039FC012240F225513B48FFF7E9FC252031
:101C10008DF8040003208DF805008DF806000120E2
:101C20008DF8070001A8FEF786FA41F61F416320F0
:101C300000F03FFB00203249088000213148FEF7C8
:101C400033FF40212C48FFF7FDFC08B010BD10B554
:101C500040F225512848FFF7FEFC00B32648FFF765
:101C600038FCC4B22648008800F40040B8B92448C3
:101C70000088B0F5167F13DA00212248FEF7D4FE63
:101C80001F48008818B901211E48FEF70DFF1C48A7
:101C900001880088401C1A4A10801B48445405E003
:101CA0001748008840F400401549088010BD0FB463
:101CB00038B505A800901548009A049900F032FE46
:101CC00000200090114800F087FB85B200240DE051
:101CD00000BF40210848FFF7A8FC0028F9D00B48B6
:101CE000015D0548FFF7F1FB601C84B2AC42EFDBFD
:101CF00038BC5DF814FB00000038014000000240D1
:101D000042000020001400404C000020A4020020EB
:101D10002DE9F04107460D46164600240CE0295DEA
:101D20003846FFF7D2FB00BF40213846FFF77DFC65
:101D30000028F9D0601C84B2B442F0DBBDE8F08129
:101D400010B588B0044601214804FEF713FD0121B7
:101D50000846FEF7EDFC5748FFF7C4FA0C20029046
:101D600002208DF80C008DF80D0000208DF80E007B
:101D700001208DF80F0002A94F48FEF7A9FA0722AB
:101D800002214D48FEF72DFB072203214A48FEF7AA
:101D900028FB04940020ADF81400ADF81600ADF84F
:101DA0001800ADF81C000C20ADF81A0004A9414839
:101DB000FFF7DBFA01213F48FFF75CFB012240F20D
:101DC00025513C48FFF70CFC26208DF8040002202A
:101DD0008DF8050000208DF8060001208DF8070021
:101DE00001A8FEF7A8F941F61F41632000F08DFA23
:101DF00000203249088000213148FEF755FE40217D
:101E00002C48FFF71FFC08B010BD10B540F225515B
:101E10002848FFF720FC00B32648FFF75AFBC4B25E
:101E20002648008800F40040B8B924480088B0F57E
:101E3000167F13DA00212248FEF7F6FD1F480088BE
:101E400018B901211E48FEF72FFE1C4801880088A2
:101E5000401C1A4A10801B48445405E0174800886B
:101E600040F400401549088010BD0FB438B505A8EE
:101E700000901548009A049900F054FD002000904D
:101E8000114800F0A9FA85B200240DE000BF4021FE
:101E90000848FFF7CAFB0028F9D00B48015D054848
:101EA000FFF713FB601C84B2AC42EFDB38BC5DF87B
:101EB00014FB0000004400400000024044000020E9
:101EC00000100040FC040020540700202DE9F041E0
:101ED00007460D46164600240CE0295D3846FFF7FC
:101EE000F4FA00BF80213846FFF79FFB0028F9D0A5
:101EF000601C84B2B442F0DBBDE8F08170B50446EA
:101F00000D46E1B26348FFF7E0FA00BF8021614867
:101F1000FFF78BFB0028F9D0204670BD10B588B0C4
:101F2000044601218804FEF725FC01210220FEF76A
:101F3000FFFB5848FFF7D6F94FF4406002900220AB
:101F40008DF80C008DF80D0000208DF80E0001209A
:101F50008DF80F0002A95048FEF7BAF907220A21AE
:101F60004D48FEF73EFA07220B214B48FEF739FA9F
:101F700004940020ADF81400ADF81600ADF8180078
:101F8000ADF81C000C20ADF81A0004A94148FFF779
:101F9000ECF901213F48FFF76DFA012240F225518B
:101FA0003C48FFF71DFB27208DF8040003208DF827
:101FB000050001208DF806008DF8070001A8FEF746
:101FC000BAF840213348FFF73DFB08B010BD10B50B
:101FD00040F225512F48FFF73EFB10B32D48FFF785
:101FE00078FAC4B22D48008800F40040C8B92B48E4
:101FF000008800F4804060B10A2C03D000202749FB
:10200000088021E02548008840F4004023490880EA
:102010001AE00D2C06D12148008840F480401F4969
:10202000088011E01D480088C0F30E001C490C54C4
:102030001A480088401C1949088008460088B0F5F5
:10204000167F01DB0020088010BD0FB438B505A84D
:1020500000901448009A049900F064FC002000905D
:10206000104800F0B9F985B200240DE000BF40210E
:102070000848FFF7DAFA0028F9D00A48015D054858
:10208000FFF723FA601C84B2AC42EFDB38BC5DF88A
:1020900014FB0000004800400004024046000020FD
:1020A000AC090020040C00201CB501210420FEF71F
:1020B0003FFB4FF40050009000208DF804000120F9
:1020C0008DF8070069461E48FEF702F91CBD10B5E1
:1020D000044614B101201B4908701A48007898B1D1
:1020E0004FF400511648FEF755F968B96420FFF720
:1020F000E3FC0020134908704FF400511048FEF72C
:1021000049F950B9012010BD4FF400510C48FEF7B9
:1021100041F9012801D10B4908700020F3E710B5FF
:102120000120FFF7D4FF044644B14FF47A70FFF763
:10213000C3FC0CB1012010BD0020FCE70020FAE731
:1021400000080240480000201CB501210220FEF7D3
:10215000EFFA0620009001208DF804008DF80500AC
:1021600000208DF8060002208DF8070069462B48F4
:10217000FEF7AEF806212948FEF726F91CBD70B51A
:1021800005460C462DB924B906212448FEF71CF952
:102190001FE0012D09D144B904212048FEF714F9AC
:1021A00002211E48FEF70EF913E055B9012C08D1A3
:1021B00002211A48FEF708F904211848FEF702F92F
:1021C00007E0012D05D1012C03D106211348FEF7AC
:1021D000F9F870BD10B50446042221461048FFF7F7
:1021E00075FE10BD70B50F480088C0F30E050024C1
:1021F00005E00D48005D0D490855601C84B2AC42F5
:10220000F7DB00200A494855084948554FF4167233
:1022100007490348FFF77CFD70BD00000004024041
:102220000044004046000020AC0900205C0E002065
:102230005407002010B501216048FEF75FFF68B128
:102240005F48008840F400405D49088001215B48F8
:10225000FEF765FF00215948FEF726FC10BD10B5BA
:1022600001215848FEF74AFF68B15748008840F4FA
:1022700000405549088001215248FEF750FF0021D7
:102280005048FEF711FC10BD10B501214F48FEF774
:1022900035FF68B14E48008840F400404C49088042
:1022A00001214A48FEF73BFF00214848FEF7FCFBAE
:1022B00010BD7FB505460C4601212020FEF75AFAD5
:1022C0000195ADF800400020ADF80800ADF802001F
:1022D00069463A48FEF76EFB012211463748FEF781
:1022E000F6FE01213548FEF7DFFB2C208DF80C00AF
:1022F00000208DF80D0003208DF80E0001208DF8D0
:102300000F0003A8FDF717FF7FBD7FB505460C46FC
:1023100001211020FEF72EFA0195ADF800400020B3
:10232000ADF80800ADF8020069462648FEF742FB0A
:10233000012211462348FEF7CAFE01212148FEF77B
:10234000B3FB2B208DF80C0000208DF80D0003202E
:102350008DF80E0001208DF80F0003A8FDF7EBFEAD
:102360007FBD7FB505460C4601210420FEF702FA29
:102370000195ADF800400020ADF80800ADF802006E
:1023800069461448FEF716FB012211460F48FEF776
:102390009EFE01210D48FEF787FB1E208DF80C00E4
:1023A00000208DF80D0003208DF80E0001208DF81F
:1023B0000F0003A8FDF7BFFE7FBD00000014004022
:1023C00042000020001000404400002000080040AF
:1023D00046000020000C0040421C10F8011B0029A0
:1023E000FBD1801A704730B50B46014600202022F1
:1023F000012409E021FA02F59D4205D303FA02F512
:10240000491B04FA02F52844151EA2F10102F1DC71
:1024100030BD2DE9F05F0546002092469B46884678
:102420000646814640241BE0284641464746224650
:1024300000F0F9F953465A46C01A914110D311469B
:102440001846224600F0E0F92D1A67EB01084F46C6
:1024500022460120002100F0D7F917EB00094E4178
:10246000201EA4F10104DFDC484631462A464346DB
:10247000BDE8F09F2DE9FE4F804681EA0300C00FC2
:102480000C46009021F0004123F00045B8EB02001B
:10249000A94105D24046214690461C460B460246BD
:1024A00023F00040104347D0270DC7F30A00C3F3C1
:1024B0000A510290401A019040286BDAC3F31300CE
:1024C00040F4801B0098924620B10023D2EB030A0F
:1024D00063EB0B0B01985946C0F14002504600F0E7
:1024E00093F906460D4650465946019A00F0ABF95D
:1024F00010EB08006141002487EA115284EAE77377
:102500001A4340D0009A62B3019A012A4FEA075257
:1025100015DC001B61EB02014FF0004202EA07529A
:10252000CDE90042001C41F5801132462B4600F0F7
:10253000ABF903B0BDE8F08F40462146F9E7001B38
:1025400061EB0201001C41F5801300185B4120186B
:10255000A2F5001747EB030140EAD570B6196D41AB
:1025600011E06D084FEA360645EAC0754FEA07529A
:10257000001B61EB0201001C41F5801149084FEA84
:1025800030000019514132462B4603B0BDE8F04FF0
:1025900000F06BB90098012240000023D0EB02024A
:1025A00063EBE073009821464FEAE074B8EB00005B
:1025B00061EB0401E9E783F000435BE781F0004150
:1025C00058E72DE9FE4F81EA030404F0004421F0AE
:1025D000004100944FF0000B23F0004350EA010447
:1025E0005ED052EA03045BD0C3F30A54C1F30A5528
:1025F0002C44A4F2F3340194A0FB0254C1F3130160
:1026000041F48011C3F3130343F4801301FB02442C
:1026100000FB034E840A970A44EA815447EA835731
:10262000A4FB076802958D0A05FB07854FEA932CEA
:1026300004FB0C542705029D4FEA065847EA16375B
:10264000B5EB08056EEB070C870E920E47EA811773
:1026500042EA8312A7FB0201B6EB0B0164EB000414
:102660002B0D43EA0C335E1844EB1C50DA465146FE
:10267000E7FB0201C5F313044FEA0B3343EA14539B
:102680004FEA0432019C43EA0603A4F10C040294CD
:10269000009CCDE900B400F0F7F803B0BDE8F08F7E
:1026A00000200146F9E72DE9F04D81EA030404F02A
:1026B000004B21F0004514464FF0000A23F0004182
:1026C00050EA050220D054EA01021DD0C5F30A5792
:1026D0000246C5F31303C1F31300C1F30A5640F4D5
:1026E000801543F48013A7EB0608101BD64608F2AA
:1026F000FD3873EB050002D308F1010801E09218E0
:102700005B41B8F1000F03DA00200146BDE8F08D0F
:1027100000204FF48011064684460EE0171B73EB31
:10272000050705D3121B63EB050306434CEA010CB6
:1027300049084FEA300092185B4150EA0107EDD199
:1027400052EA030012D082EA040083EA050108433A
:1027500005D0101BAB4106D20122002306E0002267
:102760004FF0004302E06FF0010253101AEB060035
:102770004CEB085110EB0A0041EB0B01BDE8F04DAA
:1027800000F073B8C1F30A52C1F3130140F2FF33F2
:1027900041F480119A4202DA00200146704740F26B
:1027A00033439A42A2F2334202DC524200F03BB879
:1027B00000F02AB830B5041E71F1000404DB4FF0BC
:1027C0000044404264EB0101141E73F1000405DB78
:1027D0001C464FF00043524263EB0403994208BF8A
:1027E000904230BD064C074D06E0E06840F0010322
:1027F00094E8070098471034AC42F6D3FDF77EFC0E
:102800000432000824320008202A04DB203A00FAAF
:1028100002F1002070479140C2F1200320FA03F337
:10282000194390407047202A04DB203A21FA02F035
:102830000021704721FA02F3D040C2F120029140FA
:10284000084319467047202A06DBCB17203A41FA85
:1028500002F043EAE07306E041FA02F3D040C2F12D
:102860002002914008431946704710B5141E73F1B9
:10287000000408DA401C41F1000192185B411A4340
:1028800001D120F0010010BD2DE9F04D92469B468C
:1028900011B1B1FA81F202E0B0FA80F22032904632
:1028A000FFF7B2FF04460F4640EA0A0041EA0B0177
:1028B00053465A46084313D0114653EA010019D033
:1028C000C8F140025046FFF7AEFF05460E4650469F
:1028D00059464246FFF798FF084305D0012004E01F
:1028E00020463946BDE8F08D0020054346EAE076F3
:1028F0002C4337430A986305E40AA0EB0800002242
:10290000FD0A44EA47540A3002D500200146E9E7AF
:10291000010510196941DDE9084500196941BDE863
:10292000F04DA2E737B514460846064B6A462146E5
:1029300000F0CCF804466946002000F05EFC20461A
:102940003EBD0000FB31000802E008C8121F08C1AC
:10295000002AFAD170477047002001E001C1121F20
:10296000002AFBD1704700002DE9FF5FDDE902205E
:10297000010DDDF838B0024318D044F61050A1F232
:10298000FF3141430D140F98012820D0A5EB0B0017
:10299000401C5FEA000A4FF00004474EDFF81C912C
:1029A000A046504616D5CAF1000728E00F9801242A
:1029B00043A2012808D0002100980F9BC0E9002104
:1029C000C0E90243BDE8FF9F6FEA0B01F4E7CBF1DA
:1029D0000000DEE7074612E0F80707D0224633463C
:1029E00040464946FFF7EDFD80468946224633467C
:1029F00010461946FFF7E5FD04460E467F10002FEE
:102A0000EAD1DDE90201BAF1000F42464B4602DA93
:102A1000FFF7D7FD01E0FFF746FE04460E46002211
:102A2000284BFFF7C7FE03D84FF0FF30014607E001
:102A30000022254B20463146FFF71CFDFFF7A2FE82
:102A4000102409E0002C0ADB0A220023FFF7E1FC36
:102A5000019B30321A55641E50EA0102F2D1641C07
:102A6000019AC4F1110314440F9A012A03D00122E0
:102A700008430DD10AE0084304D000204FF0110BA9
:102A80000F9080E7A3EB0B056D1E0DE05B4504DDA9
:102A90004FF0000205F1010504E003DA4FF00002F7
:102AA000A5F10105002AECD000980F99C0E9023188
:102AB000C0E9004586E70000000024400000F03F28
:102AC000300000000000F0430000E03F2DE9FF4F20
:102AD00095B09B468946064600250FE2252877D10A
:102AE00000242746F84A0121059400E0044316F823
:102AF000013F203B01FA03F01042F7D130782A2839
:102B000011D06FF02F033078A0F13002092A16D8C7
:102B1000059A44F0020402EB820203EB42021044E5
:102B2000761C0590EFE759F8042B0592002A03DA8A
:102B3000504244F40054059044F00204761C30786E
:102B40002E2816D116F8010F44F004042A280DD0BF
:102B50006FF02F023078A0F13003092B09D807EB72
:102B6000870302EB4303C718761CF3E759F8047B8D
:102B7000761C30786C280FD006DC4C2817D06828DB
:102B80000DD06A2814D104E0742810D07A280FD10F
:102B90000DE044F400140AE044F4801401E044F42D
:102BA00040147278824202D104F58014761C761C9F
:102BB000307866280BD013DC582877D009DC002841
:102BC00075D04528F6D04628F4D047281AD19DE183
:102BD00018E0632835D0642879D0652812D195E1B2
:102BE000702873D008DC6728F1D069286FD06E2870
:102BF0000DD06F2806D1B5E073282CD0752875D07C
:102C0000782874D05A46179990476D1C75E1C4F323
:102C10000250022809D003280DD0D9F8001004284A
:102C20000DD00D6009F1040967E1D9F80010EA1729
:102C3000C1E90052F6E7D9F800100D80F2E70D70F7
:102C4000F0E719F8041B8DF8001000208DF8010042
:102C5000EA46012003E059F804AB4FF0FF3061076A
:102C60004FF0000102D40DE008F101018846B9429D
:102C70000FDA8045F8DB1AF808100029F4D108E0D3
:102C800008F1010188468142FADB1AF80810002990
:102C9000F6D105985B46A0EB080721463846179AFF
:102CA00000F094FA284400EB080507E04DE029E124
:102CB0000DE01AF8010B5A4617999047B8F1010830
:102CC000F7D25B4621463846179A13E142E00A22C2
:102CD0000092C4F302524FF0000A022A08D059F8B9
:102CE00004CB032A4FEAEC710AD00DE029E02AE078
:102CF00009F1070121F00702F2E802C1914609E05B
:102D00000FFA8CFC4FEAEC71042A03D14FFA8CFCC9
:102D10004FEAEC71002907DA0A460021DCF1000CC9
:102D200061EB02012D2202E0220504D52B228DF851
:102D30000420012203E0E20701D02022F7E79046B9
:102D400059E00A2102E010220DE010214FF0000AA4
:102D500000910BE010224FF0000A44F00404082711
:102D6000009203E008224FF0000A0092C4F30252DE
:102D7000022A05D059F804CB0021032A08D009E023
:102D800009F1070121F00702F2E802C1914605E0CE
:102D90001FFA8CFC042A01D10CF0FF0C4FF0000844
:102DA000220728D5702806D0009B83F0100353EA31
:102DB0000A0305D00EE040228DF80420012208E02D
:102DC0005CEA010206D030228DF804208DF805005F
:102DD00002229046009B83F0080353EA0A030AD1BB
:102DE0005CEA010201D1620705D530228DF804208A
:102DF0004FF001087F1E582804D034A003900EA87D
:102E000002900DE036A0F9E753466046009AFFF7BE
:102E100000FB84460398825C0298401E0290027078
:102E20005CEA0100F0D1029806A9081A00F1200A14
:102E3000600702D524F4803400E00127574502DD05
:102E4000A7EB0A0000E0002000EB0A0100900598C3
:102E50004144401A0590E00306D45B462146179A88
:102E6000059800F0B3F90544002706E001A85A468A
:102E7000C05D179990476D1C7F1C4745F6DBE0034A
:102E80000CD55B462146179A059800F09FF905443A
:102E900004E030205A46179990476D1C0099481E4F
:102EA00000900029F5DC08E0029802995A46007863
:102EB000491C0291179990476D1CBAF10001AAF1C3
:102EC000010AF1DC65E100000928010030313233EC
:102ED0003435363738396162636465660000000056
:102EE0003031323334353637383941424344454640
:102EF0000000000000F058F90544761C30780028E6
:102F00007FF4ECAD19B02846BDE8F08F620700D41D
:102F1000062709F1070222F0070CFCE80223E1462C
:102F200003F000485FEA080C02D00FF2702C0DE0AD
:102F30005FEA045C02D50FF2682C07E05FEAC47C0C
:102F400002D00FF2602C01E0AFF2700C4FF0FF38AE
:102F500023F00043CDF850C065280CD006DC45288E
:102F600009D046281DD047283DD13DE0662818D01D
:102F700067287ED138E00021112F01DB112000E00D
:102F8000781CCDE9000106A90EA8FFF7EDFCDDE9EC
:102F90000F010E9A03910021009207F1010A04919A
:102FA0004DE04FF000400097CDE9011006A90EA8B2
:102FB000FFF7DAFCDDE90F0203920E9B1199002264
:102FC000DDF80CA00093049211B9791C00EB010A02
:102FD000B7EB0A0004D4C0F1FF3007F1010A0490F6
:102FE000AAEB0700019044E0012F00DA012700213D
:102FF000112F01DD112000E03846CDE9000106A9BE
:103000000EA8FFF7B1FCDDE90F010E9A0391002134
:1030100004910092BA4621070CD40399514500DA75
:103020008A46BAF1010F05DD009AAAF10101515C4F
:10303000302908D0B84202DA10F1040F06DA012173
:10304000CDE9011015E0AAF10101E9E7002805DC4E
:10305000049901440491AAEB000102E0411C51458E
:1030600000DD8A460499401A401C01904FF0004050
:103070000290200704D40198504501DBCDF804806C
:1030800000208DF84F0002980DF14F07B0F1004F6E
:1030900025D02B200E9002984FF0020800280CDA61
:1030A000404202902D200E9007E00A210298FFF77F
:1030B0009AF93031029007F8011DB8F10001A8F12A
:1030C0000108F2DC02980028EFD1791E0E980870F2
:1030D000307800F0200040F0450007F8020D12A8FB
:1030E000C01B00F107081498007800B1012000EB24
:1030F0000A01019801EBE07105984144401A401E15
:103100000590E00306D45B462146179A059800F027
:103110005DF805441498007818B15A4617999047FD
:103120006D1CE00324D55B462146179A059800F0F4
:103130004DF805441CE00498002807DBDDE9030195
:10314000884203DD0098405C179901E01799302010
:103150005A469047049805F10105401C04900198D7
:10316000401E019004D12E205A46179990476D1C9D
:10317000BAF10001AAF1010ADDDC05E017F8010B44
:103180005A46179990476D1CB8F10001A8F1010843
:10319000F4DC5B462146179A0598ABE62D0000004B
:1031A0002B000000200000002DE9F041044600251E
:1031B0001E461746880404D405E039462020B0474F
:1031C0006D1C641EF9D52846BDE8F0812DE9F0415B
:1031D000044600251E469046C80301D5302700E06E
:1031E0002027880404D505E041463846B0476D1CC9
:1031F000641EF9D52846BDE8F0810A68531C0B60AF
:103200001070704724320008000000204C000000BD
:1032100048290008703200084C0000206C1400009F
:1032200058290008030406080C101820300000007C
:10323000000102030401020304060708090000005C
:103240000048E801030406080C10182030000000B4
:103250000000000000010203040607080900000046
:10326000000000000000000000000000010000005D
:04000005080000F5FA
:00000001FF
